:020000020000FC
:100000001CC071C01895189518951895AFC0189513
:10001000B1C0BCC0189518951895189518951895E5
:100020001895189518950D0A626B506C75736820B9
:1000300033303431307230360D0A04E00EBF0FE534
:100040000DBF01E00FBB0FEF0EBBE09A0DB301BF78
:1000500000E008BB07E207BB00E005BB00E004BB13
:1000600000E002BB08E301BB02E003BF02E00EBDFB
:10007000772788279927BB27A0E600270D93A0386C
:10008000E8F36FD202E3B02ED9D0D8D0ABD0CAD02B
:10009000ACD0C8D0ADD0C6D00F9305E000950AD142
:1000A0000F9100E0C02ED02E05E108BF09BF789463
:1000B00003E005BF30E43BBF2AE083FFFECF0091A1
:1000C000790010917A00877F0C541440A8F72A9584
:1000D000A1F7F89490D08FD08ED078940EE1009351
:1000E0007B0064D186C21FB645B740FF1DC0829B0E
:1000F0003BC042E045BF4CB55DB5742E852E9F7B5D
:1001000060917700461B60917800560B483A61E693
:10011000560730F448396AE3560710F0906424C05B
:10012000BB2011F1BA9420C082991EC043E045BFA4
:1001300083FD1AC04CB55DB54093770050937800AD
:1001400096FF12C09F7B471958094093790050933E
:100150007A00483968E0560718F7403263E05607DE
:10016000F8F2886042E3B42E1FBE18951FB67E7F5A
:100170001FBE18951FB67068EE2009F0EA94BB20E8
:1001800011F4FF2701C0BA941FBE18951FB676FD63
:1001900014C062BE906145999F7E7064C098C298F9
:1001A000C198462D403021F0413039F01FBE1895DE
:1001B0000000000000000000000080FD09C074FF86
:1001C00002C0C09A05C075FF02C0C29A01C0C19AA0
:1001D0007F7B422D8D7F483310F48260706422BE95
:1001E0001FBE189538EC10E509C034EB14E606C0C4
:1001F00030EA18E703C034E618EC00C0002702BF5D
:10020000949AC29A02B70032E9F79498C29828E00B
:10021000002702BF02B70317E9F72A95C9F71A9515
:1002200069F708951FE028E0002702BF02B70F3FDB
:10023000E9F72A95C9F71A95B1F708951FE728E05D
:10024000002702BF02B70F3FE9F72A95C9F71A95B1
:10025000B1F7089530E03BBF30E03EBD32E00CB571
:100260001DB53EBD08958F7E83FF13C000917900B8
:1002700010917A00877F0C54144010F40027112746
:100280001695079516950795202F085C08F028EC21
:10029000F22F08958F7D77FF0AC07F7705C04C2D20
:1002A000433030F4C39403C0CC2009F0CA940895BD
:1002B000F894C3CE202E0853009503950395602E25
:1002C0000895093310F48E7F05C00A3F10F0816055
:1002D00001C08E7F93FD816008950F2F1D2D0117A2
:1002E00020F0012F183C09F0D394109166001123DF
:1002F00021F410916500103438F09160926012E39F
:10030000011760F0012F0AC0103238F09E7F926012
:1003100014E6011718F0012F01C09C7F95FF09C05A
:100320002AE0021710F40AE004C028E1021708F0DE
:10033000022F0095F894C5DFBDDF789408958F7B78
:1003400020916C0010916B0000916A00011B0093DA
:100350006A0000916B00020B00936B0000916C002F
:10036000004000936C00209169001091680000919A
:10037000670026951795079526951795079520935D
:100380006900209368002093670020916A00200F85
:1003900020936A0020916B00211F20936B0000E0E6
:1003A00020916C00201F20936C000895C0E8DBEBC7
:1003B000C0937100D09372002FEF3FE120936D0046
:1003C00030936E0020936F0030937000E1E0E09373
:1003D00066003FEF309365002FEF2093640008958F
:1003E00039DF00936000109361000C0F1D1F35E092
:1003F00039BF1BBD0ABD716035E139BF30E43BBF79
:100400000091640010916500E09166000093730014
:1004100010937400EE2329F03FEF30937300309374
:100420007400E69517950795E69517950795209121
:10043000640030916500E0916600201B310BE040C4
:100440000091600010916100C0916200D091630042
:1004500000936200109363000C1B1D0B009375004A
:1004600010937600200F311F10E0E11FEE2341F4BE
:10047000332321F0313021F42C3410F404E6D02E53
:100480002093640030936500E0936600E23008F04A
:100490009DDF00916700020F0093670000916800E4
:1004A000031F00936800009169000E1F009369000C
:1004B000E69537952795E69537952795E6953795EF
:1004C0002795E6953795279520936D0030936E001C
:1004D00020936F00309370000895C0916D00D0910B
:1004E0006E007EDF089570FDFECFD0917400C09144
:1004F0007300B0DE0C0F1D1F35E039BF1BBD0ABDF8
:10050000716035E139BF30E43BBF0895A3DEC0918F
:100510006F00D09170000C0F1D1F25E029BF1BBD7F
:100520000ABD716025E129BF30E43BBF84FD9BDE3D
:1005300085FDB0DE87FDD1DE86FD01DF70FDFECFDB
:100540000895C0917100D09172004ADF0CB50F7010
:10055000D01BDC3808F4DBEBD093720018D017D036
:100560000895F5E00F9305E00095A4DE0F9100E0FB
:10057000D02E00E008BB00E005BB00E002BB8160BC
:10058000977F9062089504E00A95F1F7089576FD4B
:10059000FECF76FFFECF0895089501E0E02EEE2015
:1005A000F1F7089500E008BB00E002BB00E005BBE6
:1005B00004E10A95F1F78E7F0AE0D02E0F9302E056
:1005C000009578DE0F9174D17AD1E7DFE6DF0F93E3
:1005D00005E000956FDE0F91E0DF0F9307E00095D7
:1005E00069DE0F91DADF0F930AE0009563DE0F9169
:1005F0000895B7DFD1DFC59A36DEF730E0F3D2DFFA
:10060000C59A9B7F00E000937C0008E2E02ECEDEDE
:1006100098DF94FF10C070FD02C0946013C0B7DF74
:1006200094FDF9CF00E000937C0007D110D121D1D7
:100630001ADE87DF31C070FD02C0946003C0A7DFFF
:1006400094FFF9CFFAD07DDF94FD08C070FD02C0A1
:1006500094600BC09CDF94FFF9CF07C070FD02C00F
:10066000946003C094DF94FDF9CFF1D0FCDD69DF25
:1006700094FF08C070FD02C094600BC088DF94FD39
:10068000F9CF07C070FD02C0946003C080DF94FF03
:10069000F9CFEFD022DE55DF94FD08C070FD02C017
:1006A00094600BC074DF94FFF9CF07C070FD02C0E7
:1006B000946003C06CDF94FDF9CFE5D042DF94FF76
:1006C00008C070FD02C094600BC061DF94FDF9CFDB
:1006D00007C070FD02C0946003C059DF94FFF9CFDA
:1006E000E7D0D8DD2EDF94FD08C070FD02C0946015
:1006F0000BC04DDF94FFF9CF07C070FD02C09460BE
:1007000003C045DF94FDF9CFDAD0022D0A3F09F48A
:1007100070CFEE2009F46DCF00916600002321F424
:1007200000916500003250F000917C0092FD00279E
:10073000039500937C009B7F0C3338F00FEFF02E75
:10074000CCDED3DEC5989F7D02C0FBDE62CF57D0E2
:1007500070FF41C063D070FF3EC08064D7DE6DD0B3
:10076000BCDEC1DE5BD070FF36C049D070FF33C045
:100770008061CCDE6CD0B1DEB6DE41D070FF2BC024
:100780004DD070FF28C08068C1DE73D0A6DEABDE1E
:1007900045D070FF20C033D070FF1DC0B7DE73D0CE
:1007A0009CDEA1DE2CD070FF16C038D070FF13C0C5
:1007B0008062ACDE7DD091DE96DE30D070FF0BC063
:1007C0001ED070FF08C0A2DE7AD087DE8CDE0091DA
:1007D0006600002329F09062977F80FF0DC00BCF49
:1007E000977FFF2041F0FA9429F00F2D013011F08E
:1007F000023009F49860ABCFF894B3DE1ECC0FEF53
:1008000018E070FF08958894459B089408F41395A8
:10081000001F08F41A951230A0F7089500E010E0C8
:1008200070FF08958894459B089408F41395001F61
:1008300008F41A951730A0F30895949880FF959ABC
:1008400004E007B9379800B7086000BF089504E1D5
:1008500009BF00007F7D7F7E81FD02C076FD03C061
:10086000C09880FFC19A05E109BF077F00BF379A92
:100870000895959880FF939A05E007B9379800B7D7
:10088000086000BF089504E109BF000070627F7E28
:1008900081FD02C076FD03C0C19880FFC29A05E1C8
:1008A00009BF04E007B9379800B7086000BF089592
:1008B000939880FF949A077F00BF379A089504E1C8
:1008C00009BF00007F7D706181FD02C076FD03C01D
:1008D000C29880FFC09A05E109BF05E007B93798C3
:0808E00000B7086000BF089595
:00000001FF
