:020000020000FC
:100000001CC0189569C01895189518958CC018953E
:100010008EC099C01895189518951895189518952B
:100020001895189518950D0A626B51796E782020F5
:1000300032303431307230360D0A04E00EBF0FE535
:100040000DBF0EE008BB0EE007BB00E005BB07E0FC
:1000500004BB04E002BB04E001BB02E003BF02E01A
:100060000EBD772788279927BB27A0E600270D9389
:10007000A038E8F359D204E6B02EBDD0BCD08FD062
:10008000AED090D0ACD091D0AAD00F9305E000951F
:10009000F0D00F9100E0C02ED02E05E108BF09BFBF
:1000A00078940CE005BF30E83BBF2AE083FFFECF29
:1000B0000091790010917A00877F08591840A8F7BD
:1000C0002A95A1F7F89474D073D072D078940EE189
:1000D00000937B004AD170C24CB55DB51FB6839BBF
:1000E00009C068E065BF742E852E1BC0BB20C9F017
:1000F000BA9417C06CE065BF4093770050937800C6
:10010000471958094093790050937A00403361E1D0
:10011000560760F7403466E0560740F3886044E6CF
:10012000B42E1FBE18951FB67E7F1FBE18951FB632
:100130007068EE2009F0EA94BB2011F4FF2701C09B
:10014000BA941FBE18951FB676FD14C062BE9061AA
:1001500045999F7E7064AA98A898A998462D40302A
:1001600021F0413039F01FBE18950000000000005A
:100170000000000080FD09C074FF02C0AA9A05C0FB
:1001800075FF02C0A89A01C0A99A7F7B422D8D7F7E
:10019000483310F48260706422BE1FBE189538EC9C
:1001A00010E509C034EB14E606C030EA18E703C0D6
:1001B00034E618EC00C0002702BFC298A89A02B724
:1001C0000034E9F7C29AA89820E1002702BF02B7DD
:1001D0000317E9F72A95C9F71A9569F708951EE1FB
:1001E00020E1002702BF02B70F3FE9F72A95C9F7C0
:1001F0001A95B1F708951EEF20E1002702BF02B75C
:100200000F3FE9F72A95C9F71A95B1F7089530E03D
:100210003BBF30E03EBD32E00CB51DB53EBD08959C
:100220008F7E83FF15C00091790010917A00877F3F
:100230000859184010F400271127169507951695B0
:10024000079516950795202F085C08F028ECF22FEB
:1002500008958F7D77FF0AC07F7705C04C2D43300E
:1002600030F4C39403C0CC2009F0CA940895F894E4
:10027000E4CE202E0853009503950395602E089533
:10028000093310F48E7F05C00A3F10F0816001C071
:100290008E7F93FD816008950F2F1D2D011720F093
:1002A000012F183C09F0D39410916600112321F41A
:1002B00010916500103838F09160926012E30117D8
:1002C00060F0012F0AC0103438F09E7F926014E66F
:1002D000011718F0012F01C09C7F95FF09C02AE08B
:1002E000021710F40AE004C028E1021708F0022FF8
:1002F0000095F894C5DFBDDF789408958F7B209139
:100300006C0010916B0000916A00011B00936A0061
:1003100000916B00020B00936B0000916C00004099
:1003200000936C00209169001091680000916700B3
:10033000269517950795269517950795209369009B
:10034000209368002093670020916A00200F20937B
:100350006A0020916B00211F20936B0000E0209128
:100360006C00201F20936C000895C8EEDDEFC09351
:100370007100D09372002FEF3FE120936D00309316
:100380006E0020936F0030937000E3E0E09366000E
:100390003FEF309365002FEF20936400089537DF1F
:1003A00000936000109361000C0F1D1F35E039BFF2
:1003B0001BBD0ABD716035E139BF30E83BBF00911C
:1003C000640010916500E091660000937300109343
:1003D0007400EE2329F03FEF3093730030937400E4
:1003E000E69517950795E695179507952091640072
:1003F00030916500E0916600201B310BE0400091D8
:10040000600010916100C0916200D0916300009380
:100410006200109363000C1B1D0B0093750010937A
:100420007600200F311F10E0E11FEE2341F433234B
:1004300021F0323021F4283910F404E6D02E209334
:10044000640030936500E0936600E43008F09DDFBF
:1004500000916700020F0093670000916800031F7E
:1004600000936800009169000E1F00936900E695F3
:1004700037952795E69537952795E69537952795EE
:10048000E6953795279520936D0030936E00209365
:100490006F00309370000895C0916D00D0916E0090
:1004A0007EDF089570FDFECF379800B7086000BF6B
:1004B000D0917400C0917300AADE0C0F1D1F35E0AF
:1004C00039BF1BBD0ABD716035E139BF30E83BBFA4
:1004D00008959DDEC0916F00D09170000C0F1D1F1C
:1004E00025E029BF1BBD0ABD716025E129BF30E8A9
:1004F0003BBF84FD95DE85FDACDE87FDCDDE86FD50
:10050000FDDE70FDFECF0895C0917100D0917200A4
:1005100046DF0CB50F70D01BDB3B08F4DDEFD0934A
:10052000720018D017D00895F5E00F9305E00095FC
:10053000A0DE0F9100E0D02E0EE008BB00E005BB6E
:1005400004E002BB8160977F9062089508E00A95FD
:10055000F1F7089576FDFECF76FFFECF089508955A
:1005600002E0E02EEE20F1F708950EE008BB04E073
:1005700002BB00E005BB08E20A95F1F78E7F0AE0B6
:10058000D02E0F9302E0009574DE0F916DD172D1E1
:10059000E7DFE6DF0F9305E000956BDE0F91E0DF0C
:1005A0000F9307E0009565DE0F91DADF0F930AE005
:1005B00000955FDE0F910895B7DFD1DF929A30DEAC
:1005C000F730E0F3379800B7086000BFCEDF929AAB
:1005D0009B7F00E000937C0000E5E02EC6DE94DF08
:1005E00094FF10C070FD02C0946013C0B3DF94FD8F
:1005F000F9CF00E000937C0009D10ED11ED110DEAE
:1006000083DF31C070FD02C0946003C0A3DF94FF9C
:10061000F9CFFCD079DF94FD08C070FD02C0946072
:100620000BC098DF94FFF9CF07C070FD02C0946043
:1006300003C090DF94FDF9CFEFD0F2DD65DF94FFCA
:1006400008C070FD02C094600BC084DF94FDF9CF38
:1006500007C070FD02C0946003C07CDF94FFF9CF37
:10066000ECD01ADE51DF94FD08C070FD02C094602A
:100670000BC070DF94FFF9CF07C070FD02C094601B
:1006800003C068DF94FDF9CFDED03EDF94FF08C0E1
:1006900070FD02C094600BC05DDF94FDF9CF07C010
:1006A00070FD02C0946003C055DF94FFF9CFDCD029
:1006B000D0DD2ADF94FD08C070FD02C094600BC03D
:1006C00049DF94FFF9CF07C070FD02C0946003C0FA
:1006D00041DF94FDF9CFCED0022D0A3F09F46CCF53
:1006E000EE2009F469CF00916600002321F4009107
:1006F0006500003450F000917C0092FD00270395C6
:1007000000937C009B7F0C3338F00FEFF02EC4DE9B
:10071000CBDE92989F7D02C0F7DE62CF59D070FF8A
:1007200043C065D070FF40C08064D3DE6FD0B4DEBC
:10073000B9DE5DD070FF38C04BD070FF35C080612E
:10074000C8DE6AD0A9DEAEDE43D070FF2DC04FD028
:1007500070FF2AC08068BDDE70D09EDEA3DE47D069
:1007600070FF22C035D070FF1FC0B3DE6CD094DEA6
:1007700099DE2ED070FF18C03AD070FF15C080628D
:10078000A8DE72D089DE8EDE32D070FF0DC020D0A0
:1007900070FF0AC09EDE6ED07FDE84DE00916600B0
:1007A000002339F00A9529F09062977F80FF0DC0F1
:1007B00005CF977FFF2041F0FA9429F00F2D0130EB
:1007C00011F0023009F49860A9CFF894ADDE35CC71
:1007D0000FEF18E070FF08958894459B089408F483
:1007E0001395001F08F41A951230A0F7089500E041
:1007F00010E070FF08958894459B089408F41395C1
:10080000001F08F41A951730A0F30895C29A80FFCC
:10081000C39804E007B9089504E109BF00007F7D93
:100820007F7E81FD02C076FD03C0AA9880FFA99A51
:1008300005E109BF05E007B90895C39A80FFC19893
:1008400003E007B9089504E109BF000070627F7EEC
:1008500081FD02C076FD03C0A99880FFA89A05E13A
:1008600009BF04E007B90895C19A80FFC29805E066
:1008700007B9089504E109BF00007F7D706181FD23
:1008800002C076FD03C0A89880FFAA9A05E109BFBF
:0608900003E007B9089522
:00000001FF
