:100000003BC0A0C054C053C052C051C050C04FC02C
:100010004EC04DC04CC04BC04AC049C048C047C08C
:1000200046C045C044C0ECC5F5C4F5C414C598C568
:10003000F7C539C539C5E7C500020406080A0C0E24
:1000400010121416181A1C1E20222426282A2C2EC0
:1000500030323436383A3C3E00020406080A0C0EB0
:1000600010120116011A1C1E20222426012A2C2EF1
:1000700001010136383A3C3E11241FBECFE5D4E0E1
:10008000DEBFCDBF10E0A0E6B0E0E6E8FEE002C0D3
:1000900005900D92AA36B107D9F710E0AAE6B0E0B4
:1000A00001C01D92AE3BB107E1F735D6EAC6A8CF35
:1000B000FC01808591859B01281B390BC901718743
:1000C00060872081318142815381A0E0B0E08217B6
:1000D0009307A407B50750F4281B390B4A0B5B0B99
:1000E000208331834283538380E008958481958106
:1000F000A681B78180839183A283B38381E0089531
:10010000AC01440F551F445050408FB7F8946CB564
:100110007DB58FBF2FB7F8948CB59DB52FBF861BCB
:10012000970B84179507B0F30895CF93DF93EC01F5
:10013000009729F088EE93E0E3DF2197D9F7DF916C
:10014000CF9108951F920F920FB60F9211242F9303
:100150003F938F939F932CB53DB5829916C08091A4
:100160008F0090919000281B390B30938E002093C4
:100170008D008CE4809378009F918F913F912F9117
:100180000F900FBE0F901F90189530939000209302
:100190008F00F2CF809178008823E9F020918D00C4
:1001A00030918E0080918D0090918E002817390734
:1001B000A9F78091790090917A002817390758F0B3
:1001C00080917B0090917C008217930720F0309300
:1001D00077002093760008951092780010927700AF
:1001E00010927600D7DF809176009091770000978B
:1001F000C9F308959598AC98C098949AAD9AAB9A23
:100200000895813028F4AB9A813038F4C09A08956B
:10021000833048F4AD9A8130C8F3833040F08530A4
:10022000A8F7959A0895853070F7949AEDCFAC9A17
:100230000895823051F1833060F0843061F1843070
:1002400098F4AD9AAC98959803FD959A87E087B994
:100250000895882331F4AD9AAB9A949887E087B9D2
:100260000895813059F008958530E9F7949A95986A
:10027000AC9803FDC09A86E087B90895AB9AC09800
:10028000959803FDAC9A17B80895AD9A949AAB98D7
:1002900086E087B90895AB9A949AAD9817B80895F7
:1002A000823081F0833038F0843079F0843040F44B
:1002B00087E087B908958823D9F3813031F0089514
:1002C0008530E9F786E087B9089517B80895802F3B
:1002D00087708150AEDF802F8770ABCF90E0A0E0B9
:1002E000B0E02091850030918600442737FD40958D
:1002F000542FBC01CD0116D524E630E040E050E09B
:1003000057D5DA01C90108959201402F487003FFC3
:1003100006C08091850090918600281B390B809142
:10032000810090918200821B930B909382008093B6
:10033000810097FD12C0442309F40895802F877F20
:10034000082F9598AC98C0988770813020F0833042
:1003500068F0853048F0AB980895442371F7802FFA
:100360008860082F87704DCF94980895AD980895B0
:1003700080FF0DC004FD0DC0239482E1821510F4AE
:1003800052E1252E80E0222009F481E0089504FD49
:10039000F3CF2A94F2CFE22D04FFE160F0E0E85CB5
:1003A000FF4FE4912E2E8E2F81700895E22D04FDD3
:1003B000E160F0E0E85CFF4FE4912E2E8E2F81701B
:1003C0000895E8DE40917600509177008091830097
:1003D00090918400481B590B809187009091880070
:1003E0004817590714F440E050E0209185003091FF
:1003F00086008091B8009091B900821793072CF481
:1004000005969093B9008093B800281739070CF42B
:10041000C901481759070CF4CA012C01089590939B
:10042000B7008093B6009093AF008093AE008091A8
:10043000A1009091A2009093AB008093AA009695A2
:10044000879596958795969587959093B300809319
:10045000B200969587959093A5008093A400089587
:100460008FEF8093A3000F7D5092B9004092B800A7
:100470008091B0009091B100D2CF902F9F7B092F37
:10048000809175008111006480916A0090916B00E9
:10049000880F991F90937A008093790080916C0067
:1004A00090916D00880F991F90937C0080937B0042
:1004B000E0916E00F0916F00EE0FFF1FF0937E0051
:1004C000E0937D008091720090917300880F991FD6
:1004D0009093800080937F00209170003091710094
:1004E000220F331F2E1B3F0BC901880F991F880F46
:1004F000991F880F991F64E670E033D4260F371FC9
:100500003093860020938500E61BF70BF093840060
:10051000E093830088E0E2DE909388008093870078
:1005200088E0DCDE90938A008093890089E1D6DE42
:1005300090938C0080938B000895CF92DF92FF926E
:100540001F93CF93DF93EC016B01F42E142F44DE45
:10055000212F1F2D8C179D07D0F3C816D906B8F38D
:10056000122F1150A1F7DF91CF911F91FF90DF90D3
:10057000CF90089560917D0070917E008091790008
:1005800090917A0042E3D9CF8091740090E0880F77
:10059000991F20917D0030917E0060917B007091C9
:1005A0007C00820F931F4FE0C8CF81E098D3609109
:1005B000630070916400809161009091620095D316
:1005C000609167007091680080916500909166006D
:1005D0008CD38AC3A1E0B0E0EFEEF2E01BC4F89444
:1005E00019BE1FBC82E08EBD18BA81E387BB8AE2C8
:1005F00085BB8AE384BB80E182BB80E381BB379803
:1006000080B7886080BF429AF5DD959AAC9AC09A0F
:1006100085E090E08ADD9598AC98C098929A85B76D
:100620008C7F816085BF8BB780648BBF10928E00FA
:1006300010928D0088EE93E0909373008093720087
:1006400084E893E090936B0080936A0088E998E0D7
:1006500090936D0080936C0084E294E090936F001F
:1006600080936E0084E497E0909371008093700013
:1006700085E0809374008FEF9FEF909394008093B8
:10068000930089E1898381E02AD3CE01019661E05C
:1006900070E02BD329D38981893141F07894EDDE44
:1006A0008AEF90E042DD2196E2E0D0C37EDFF6CF14
:1006B000CF92DF92EF92FF92CF93DF93262FE82F16
:1006C000F0E080E197E2BF0160D36B0130E02E9F44
:1006D00070012F9FF00C3E9FF00C1124E114F104E7
:1006E000B1F0C0E0D0E0802F87708BDD86E090E035
:1006F00007DD9598AC98C098802F8770813070F492
:10070000AB98C601FDDC2196CE15DF0560F3DF91C5
:10071000CF91FF90EF90DF90CF900895833020F03D
:10072000853070F79498EDCFAD98EBCF1F93087F8D
:10073000CEDD10E0912F9770802F887F082F092B36
:10074000812F77DD812F8A5F6AE0B2DF85E090E05C
:10075000ECDC1F5F153071F71F910895A0E0B0E049
:10076000E3EBF3E04CC3E2DF05DF8CE062E3A0DF04
:1007700030EA832E36E8932E31E0A32EB12C2FEFF2
:10078000622E2FE7722EC090B000D090B10032DD03
:10079000109282001092810044245524802F877F7C
:1007A000082F86FF03C0959AAC9AC09AEDDE22DD31
:1007B0004090890050908A0088E098EFA1E0B0E076
:1007C00080939B0090939C00A0939D00B0939E000B
:1007D0009FEFE92E9FE3F92E10E080919B0090910E
:1007E0009C00A0919D00B0919E00809397009093F3
:1007F0009800A0939900B0939A0082E1282E1AC025
:100800000F7E82DD8FB7F8946CB57DB58FBF87E919
:1008100090E04EDC882309F0A1C0802F8770A8DD0E
:10082000882391F4459B0AC00F7E802F8770A0DD3E
:10083000882351F44599E4CF0061E3CF0061802F14
:10084000877096DD8823B1F38FB7F894CCB5DDB50A
:100850008FBFCE018C199D092091BA003091BB0049
:10086000280F391F9093BB008093BA00C9018E19DD
:100870009F099595879595958795E80EF91E1F5FB9
:10088000183708F467C095EEE9169BE1F90608F4FD
:1008900082C06E0118E7902F9770892F8F5F863086
:1008A00008F086508770902F987F982B9598AC9879
:1008B000C098813078F5AB98092F077FBADC802F7C
:1008C000877099F180919B0090919C00A0919D0070
:1008D000B0919E008897A109B10980939B009093E5
:1008E0009C00A0939D00B0939E00805A9648A14022
:1008F000B04040F480929B0090929C00A0929D009A
:10090000B0929E004114510409F441CF8CE291E071
:10091000F7DB63CF833000F1853068F69498092FB8
:10092000077F87DC802F877069F634DC4091760082
:10093000509177008091830090918400481B590B5F
:100940008091870090918800481759074CF44424FF
:100950005524B8CF6E019FCFAD98AECF10E09BCF9E
:100960002091890030918A00421753074CF0809102
:100970008B0090918C009A01841795070CF49C01D0
:10098000C2012419350935952795359527952901F3
:10099000480E591E97CF3093A2002093A100D09308
:1009A000B100C093B000902F9770892F8F5F863071
:1009B00008F086508770902F987F092F082B39DC1C
:1009C0004FDDDD2410E0459B69C00F7ED0FC69C07F
:1009D0008FB7F894ECB4FDB48FBFE12FF0E0E930AD
:1009E000F105A8F0D093B100C093B00003DC1092E1
:1009F00082001092810044245524077F8091A30037
:100A0000882309F4C0CECDB7DEB7EDE014C2ED5EA9
:100A1000FF4F099412E08091A8009091A9009701DE
:100A2000281B390BF092A900E092A8008091A40045
:100A30009091A5002817390708F416C18091A600E7
:100A40009091A7009093A5008093A4002224802F6A
:100A5000877080FF85C08091AE009091AF009701B4
:100A6000281B390BF092AF00E092AE008091AA00F3
:100A70009091AB002817390708F0DCC0821B930B5C
:100A80009093AB008093AA0086DC882309F0F4C021
:100A9000AE0113E0D394EA01459997CF0061D0FEEF
:100AA00097CF32DC95CF17E08091B6009091B700D8
:100AB0009701281B390BF092B700E092B6008091A5
:100AC000B2009091B3002817390708F4C5C080918F
:100AD000B4009091B5009093B3008093B2008091E0
:100AE000A1009091A2008151974208F092C0902FEE
:100AF0009770892F8F5F863008F086508770902F0F
:100B0000987F092F082B95DB809195009091960096
:100B10009701281B390BF0929600E0929500809186
:100B20009100909192002817390708F4CFC0809166
:100B30009300909194009093920080939100809103
:100B40007800815080937800882309F0C5C0109206
:100B500077001092760010928E0010928D00BCC02B
:100B60008091AE009091AF009701281B390BF09255
:100B7000AF00E092AE008091AA009091AB002817E0
:100B8000390708F057C0821B930B9093AB008093FA
:100B9000AA000CDC882309F06FC0AE0114E07ACF04
:100BA00029DB109282001092810044245524902F5A
:100BB000977F292F2770822F8D5F863008F086500F
:100BC0008770987F092F082B6BDBF092AF00E092C3
:100BD000AE007092AB006092AA00F092A900E09281
:100BE000A8008091A1009091A20096958795969576
:100BF0008795969587959093A5008093A4000062B1
:100C0000AE0111E047CFDDDB06FF0FC041145104F8
:100C100061F4D093B100C093B0001092A300E6CE6F
:100C2000CE01FDDBAE0116E035CFF092A900E092D7
:100C3000A800E6CF8091AC009091AD009093AB00FE
:100C40008093AA0005FFACCFD093B100C093B00051
:100C500081E08093A300CACE821B930B9093B300D4
:100C60008093B200AE0116CF821B930B9093A50028
:100C70008093A400AE010ECFA7014A52504005FF59
:100C800012C0CA018C1B9D0B969587959093A2006C
:100C90008093A100969587959093BB008093BA00AE
:100CA0000F7D15E0F7CE9A012C1B3D0B8091BA0009
:100CB0009091BB00820F931F9093A2008093A1009C
:100CC0003093BB002093BA0015E0E4CE821B930B57
:100CD0009093920080939100AE0118E0DBCE1092C9
:100CE000BD001092BC00089508950F931F938B01CF
:100CF0006091BC007091BD00A801B3D08091BC0090
:100D00009091BD00800F911F9093BD008093BC0017
:100D10001F910F91089504D05DDC20DD1FDDFDCF14
:100D200078940895629FD001739FF001829FE00D37
:100D3000F11D649FE00DF11D929FF00D839FF00D5A
:100D4000749FF00D659FF00D9927729FB00DE11D06
:100D5000F91F639FB00DE11DF91FBD01CF011124E3
:100D60000895AA1BBB1B51E107C0AA1FBB1FA617F2
:100D7000B70710F0A61BB70B881F991F5A95A9F744
:100D800080959095BC01CD01089597FB092E07260B
:100D90000AD077FD04D0E5DF06D000201AF4709564
:100DA00061957F4F0895F6F7909581959F4F08952F
:100DB000A1E21A2EAA1BBB1BFD010DC0AA1FBB1F5F
:100DC000EE1FFF1FA217B307E407F50720F0A21BD1
:100DD000B30BE40BF50B661F771F881F991F1A943E
:100DE00069F760957095809590959B01AC01BD0168
:100DF000CF0108952F923F924F925F926F927F9210
:100E00008F929F92AF92BF92CF92DF92EF92FF921A
:100E10000F931F93CF93DF93CDB7DEB7CA1BDB0BC6
:100E20000FB6F894DEBF0FBECDBF09942A8839886B
:100E300048885F846E847D848C849B84AA84B98472
:100E4000C884DF80EE80FD800C811B81AA81B9817E
:100E5000CE0FD11D0FB6F894DEBF0FBECDBFED0192
:100E60000895DC01CB01FC01E199FECF06C0FFBB78
:100E7000EEBBE09A31960DB20D9241505040B8F75A
:060E80000895F894FFCF75
:0A0E860019600001006A000C000072
:00000001FF
