:1000000081C0E6C09AC099C098C097C096C095C0FC
:1000100094C093C092C091C090C08FC08EC08DC05C
:100020008CC08BC08AC03BC13EC13DC13AC139C101
:1000300036C136C135C133C134C133C134C133C116
:100040002EC13DC141C140C13DC13CC138C139C1D2
:1000500038C135C137C136C137C136C130C13EC1E3
:1000600041C140C13DC13CC139C139C138C136C1AE
:1000700037C136C137C136C131C150C155C15BC16D
:1000800060C166C16BC149C148C16FC174C17CC147
:1000900081C189C13AC1A6C1A2C19EC1A3C19FC1EC
:1000A0009BC19CC19BC198C19AC19CC195C197C17C
:1000B00099C1D7C5DFC4DFC4FEC481C5DDC521C574
:1000C00021C5D1C500020406080A0C0E1012141630
:1000D000181A1C1E20222426282A2C2E30323436B0
:1000E000383A3C3E00020406080A0C0E10120116B3
:1000F000011A1C1E20222426012A2C2E0101013661
:10010000383A3C3E11241FBECFE5D4E0DEBFCDBF60
:1001100010E0A0E6B0E0E0E5F1E102C005900D924C
:10012000AA36B107D9F710E0AAE6B0E001C01D92E7
:10013000A23CB107E1F73FD709C862CFFC01808537
:1001400091859B01281B390BC9017187608720812C
:10015000318142815381A0E0B0E082179307A40768
:10016000B50750F4281B390B4A0B5B0B20833183F6
:100170004283538380E0089584819581A681B7816D
:1001800080839183A283B38381E00895AC01440FFF
:10019000551F445050408FB7F8946CB57DB58FBF54
:1001A0002FB7F8948CB59DB52FBF861B970B84177E
:1001B0009507B0F30895CF93DF93EC01009729F0F2
:1001C00088EE93E0E3DF2197D9F7DF91CF9108958F
:1001D0001F920F920FB60F9211242F933F938F937C
:1001E0009F932CB53DB5829916C080919200909155
:1001F0009300281B390B30939100209390008CE4DE
:1002000080937B009F918F913F912F910F900FBE14
:100210000F901F9018953093930020939200F2CF87
:1002200080917B008823E9F020919000309191002B
:10023000809190009091910028173907A9F780913B
:100240007C0090917D002817390758F080917E003E
:1002500090917F008217930720F030937A002093CB
:100260007900089510927B0010927A001092790024
:10027000D7DF8091790090917A000097C9F30895B3
:100280009198939897989098949895980895E82FB6
:10029000F0E0EE30F10520F4ED5EFF4F0994979AFF
:1002A0000895919A0895939A089503FD8860E82F20
:1002B000F0E0EE30F10528F4EF5DFF4F09949598DA
:1002C000E6CF08959098E3CF9498E1CFE82FF0E03F
:1002D000EE30F10520F4E15DFF4F0994959A089501
:1002E000909A0895949A089591989398979803FDF9
:1002F0008860ECCF902F03FD8860E82FF0E0EE30AF
:10030000F10558F4E35CFF4F099494989398919801
:1003100094FD56C0959A83E087B90895949895986E
:10032000909A83E087B9089595989798919894FF4B
:1003300045C0939A26C094989098959A82E087B980
:10034000089594989398919894FF36C0919A1FC0FD
:1003500095989098949A84E087B908959098919888
:10036000939894FF27C0979A1BC090989598949A59
:1003700082E087B9089595989798939894FD18C04E
:10038000909A84E087B9089590989498959A83E01C
:1003900087B9089590989198939894FD07C0949A7E
:1003A00082E087B9089595989498EACF939AF8CF08
:1003B000919AE7CF959AF4CF909AE9CF949AE1CFAA
:1003C000979AA9CF03FD8860E82FF0E0EE30F105A1
:1003D00028F4E55BFF4F099482E087B9089584E033
:1003E00087B9089583E087B90895802F8770815079
:1003F00081DF802F87707ECF90E0A0E0B0E0209179
:10040000880030918900442737FD4095542FBC0166
:10041000CD01D8D524E630E040E050E019D6DA012D
:10042000C90108959201402F407104FF06C08091D8
:10043000880090918900281B390B8091840090914D
:100440008500821B930B909385008093840097FD19
:1004500008C0442309F40895802F8F7E082F8770E9
:1004600043CF4423C1F7802F8061082F87701DCFB1
:10047000802F877080FF0DC005FD0DC0239482E1A1
:10048000821510F452E1252E80E0222009F481E04B
:10049000089505FDF3CF2A94F2CFE22D05FFE16028
:1004A000F0E0EC53FF4FE4912E2E8E2F81700895D3
:1004B000E22D05FDE160F0E0EC53FF4FE4912E2EBC
:1004C0008E2F81700895ACDE4091790050917A00B2
:1004D0008091860090918700481B590B80918A007B
:1004E00090918B004817590714F440E050E0209198
:1004F0008800309189008091BC009091BD008217E6
:1005000093072CF405969093BD008093BC002817A8
:1005100039070CF4C901481759070CF4CA012C011A
:1005200008959093BA008093B9009093B20080939D
:10053000B1008091A4009091A5009093AE008093AB
:10054000AD009C01369527953695279536952795CC
:100550003093B6002093B500C90196958795909386
:10056000A8008093A700AC015695479556954795EE
:100570008091BB00823059F0833019F0813089F0CE
:100580000895241B350B3093B6002093B50080915D
:10059000B5009091B600841B950B9093B6008093A4
:1005A000B5008091B5009091B600841B950B909397
:1005B000B6008093B50008958FEF8093A6000F7B5F
:1005C0005092BD004092BC008091B3009091B40065
:1005D000A8CF902F9F77092F809175008111006817
:1005E000809176008093BB0080916A0090916B00AF
:1005F000880F991F90937D0080937C0080916C0000
:1006000090916D00880F991F90937F0080937E00DA
:10061000E0916E00F0916F00EE0FFF1FF0938100EC
:10062000E09380008091720090917300880F991F71
:10063000909383008093820020917000309171002C
:10064000220F331F2E1B3F0BC901880F991F880FE4
:10065000991F880F991F64E670E0D3D4260F371FC7
:100660003093890020938800E61BF70BF0938700F6
:10067000E093860070938B0060938A0088E0BCDE74
:1006800090938D0080938C0089E1B6DE90938F006B
:1006900080938E00902F977F092F80917800811191
:1006A00008600895CF92DF92EF92FF92CF93DF938D
:1006B000262FE82FF0E080E197E2BF01B6D46B016E
:1006C00030E02E9F70012F9FF00C3E9FF00C112404
:1006D000E114F10489F0C0E0D0E0802F8770E5DDFF
:1006E00086E090E053DD802F8770FEDDC6014EDD91
:1006F0002196CE15DF0588F3DF91CF91FF90EF9023
:10070000DF90CF9008951F93087F6FDE10E0912F48
:100710009770802F887F082F092B812FEBDD812F89
:100720008A5F6AE0BFDF85E090E045DD1F5F15303E
:1007300071F71F910895CF92DF92FF921F93CF938D
:10074000DF93EC016B01F42E142F8CDD212F1F2D74
:100750008C179D07D0F3C816D906B8F3122F115085
:10076000A1F7DF91CF911F91FF90DF90CF90089577
:10077000EF92FF921F93CF93DF9374DD7C01EC0126
:1007800010E003C01F5F1233A9F06CDDE816F90614
:1007900008F47C018C179D0708F4EC01C7018C1B41
:1007A0009D0B099778F380E090E0CDB7DEB7E5E0E8
:1007B0009AC409C0CE018E0D9F1D96958795CDB721
:1007C000DEB7E5E090C46091800070918100809177
:1007D0007C0090917D0042E3AECF8091740090E068
:1007E000880F991F209180003091810060917E00D8
:1007F00070917F00820F931F4FE09DCFA0E0B0E08B
:10080000E3E0F4E04CC4DFDFF0DD8CE062E34ADFDC
:1008100078E0672E78EF772E71E0872E912C60EAD2
:10082000C62E66E8D62E61E0E62EF12CAA24A3940B
:1008300027DD109285001092840044245524802FD7
:100840008F7E082F87FF03C0919A939A979AC5DFEE
:1008500017DD40908C0050908D0060929E00709249
:100860009F008092A0009092A100CFEFDFE310E004
:1008700080919E0090919F00A091A000B091A10056
:1008800080939A0090939B00A0939C00B0939D004E
:1008900052E1252E16C00F7DC5DD8FB7F8946CB5DB
:1008A0007DB58FBF8AE990E049DC882309F092C0CA
:1008B000DFDD882371F4459B08C00F7DD9DD8823D7
:1008C00041F44599E8CF0062E7CF0062D1DD88238B
:1008D000C1F38FB7F8942CB53DB58FBF8091B300AD
:1008E0009091B400A901481B590B3093B400209398
:1008F000B3008091BE009091BF00840F951F90932C
:10090000A5008093A4005093BF004093BE008C1BB1
:100910009D0B9595879595958795C80FD91F1F5F56
:10092000183730F02BE1C53ED2070CF470C018E741
:10093000902F9770892F8F5F863008F086508770D0
:10094000902F987F092F082BCFDC802F8F7E082FC8
:100950008770D0DC802F877041F180919E0090914C
:100960009F00A091A000B091A1008897A109B109B2
:1009700080939E0090939F00A093A000B093A1004D
:10098000805A9648A140B04040F4C0929E00D09258
:100990009F00E092A000F092A1004114510409F4DC
:1009A00047CF8CE291E0F2DB63CF3ADC40917900F3
:1009B00050917A008091860090918700481B590BD6
:1009C00080918A0090918B00481759072CF4442499
:1009D0005524C3CF10E0ACCF20918C0030918D0016
:1009E000421753074CF080918E0090918F009A012E
:1009F000841795070CF49C01C2012419350935951B
:100A00002795359527952901480E591EA6CF902F79
:100A10009770892F8F5F863008F086508770902FEF
:100A2000987F092F082B66DCC7DDBB2410E0459BAF
:100A300063C00F7DB0FC63C08FB7F894CCB5DDB553
:100A40008FBFE12FF0E0E930F10588F019DC10925A
:100A5000850010928400442455240F7E8091A600C6
:100A6000882309F4E5CECDB7DEB7EDE034C3E75A0D
:100A7000FF4F099412E08091AB009091AC009E0171
:100A8000281B390BD093AC00C093AB008091A7001A
:100A90009091A8002817390708F40FC18091A90088
:100AA0009091AA009093A8008093A7002224802F01
:100AB000877080FF84C08091B1009091B2009E0148
:100AC000281B390BD093B200C093B1008091AD00C8
:100AD0009091AE002817390708F0DBC0821B930BFA
:100AE0009093AE008093AD00D8DC882309F0ECC071
:100AF00013E0B39445999DCF0062B0FE9DCF92DC88
:100B00009BCF17E08091B9009091BA009E01281BFD
:100B1000390BD093BA00C093B9008091B500909181
:100B2000B6002817390708F4C1C08091B70090912A
:100B3000B8009093B6008093B5008091A400909186
:100B4000A5008151974208F094C0902F9770892F8B
:100B50008F5F863008F086508770902F987F092F1E
:100B6000082BC8DB80919800909199009E01281B6A
:100B7000390BD0939900C093980080919400909184
:100B800095002817390708F4DAC0809196009091F3
:100B90009700909395008093940080917B00815002
:100BA00080937B00882341F410927A0010927900A0
:100BB000109291001092900018E0B3949BCF809116
:100BC000B1009091B2009E01281B390BD093B20066
:100BD000C093B1008091AD009091AE002817390705
:100BE00008F057C0821B930B9093AE008093AD002A
:100BF0005FDC882309F068C014E0B3947BCF40DB4E
:100C0000109285001092840044245524902F9F7EDA
:100C1000292F2770822F8D5F863008F086508770CD
:100C2000987F092F082BCEDBD093B200C093B10080
:100C30008FEF9FE79093AE008093AD00D093AC0010
:100C4000C093AB008091A4009091A50096958795E4
:100C500096958795969587959093A8008093A70081
:100C6000006411E046CF2FDC07FF0DC04114510492
:100C700051F41092A600EACE8091B3009091B40096
:100C800050DC16E036CFD093AC00C093AB0011E03F
:100C900030CF8091AF009091B0009093AE008093E0
:100CA000AD0006FFACCFA092A600D0CE821B930B66
:100CB0009093B6008093B5001CCF821B930B90934A
:100CC000A8008093A70015CFAE014A52504006FFFE
:100CD0001BC08091B3009091B4009A01281B390B7E
:100CE000C9015093B4004093B300969587959093B3
:100CF000A5008093A400969587959093BF0080935C
:100D0000BE000F7B15E0F5CE8091B3009091B4004A
:100D10009A01281B390B5093B4004093B300809183
:100D2000BE009091BF00820F931F9093A500809307
:100D3000A4003093BF002093BE0015E0DACE821BE2
:100D4000930B909395008093940018E036CF81E048
:100D5000E7D0609163007091640080916100909190
:100D60006200E4D060916700709168008091650036
:100D700090916600DBD0D9C082E0D2D06091630050
:100D8000709164008091610090916200E5D0609163
:100D90006700709168008091650090916600DCD0DA
:100DA000C4C0809177008111089560917E00709198
:100DB0007F0080917C0090917D004AE0BCDC52DA9B
:100DC00089569B4088F3D4DC0097E9F39695879584
:100DD00090937100809370008AE06AE063DC88EC95
:100DE00090E0E9D98AE06AE05DDC80917C00909136
:100DF0007D0068E67BE049E19EDCBADC0097E9F320
:100E0000FC01F695E7952091700030917100C901C1
:100E10008E1B9F0B880F991F880F991F64E670E047
:100E2000F0D0261B370B3093710020937000E60F33
:100E3000F71FF0936F00E0936E009EDFCACBA1E036
:100E4000B0E0E4E2F7E036C1F89419BE1FBC82E0DE
:100E50008EBD18BA80E387BB15BA14BA12BA8BEBF1
:100E600081BB379880B7886080BF0ADA919A939ADD
:100E7000979A85E090E09FD9919893989798929A45
:100E800085B78C7F816085BF8BB780648BBF1092E4
:100E9000910010929000109273001092720084E8FA
:100EA00093E090936B0080936A0088E998E09093B8
:100EB0006D0080936C0084E294E090936F008093C7
:100EC0006E0084E497E0909371008093700085E059
:100ED000809374008FEF9FEF90939700809396001C
:100EE0008DE1898381E01CD0CE01019661E070E044
:100EF0001DD01BD089818D3189F0789410928500A6
:100F000010928400442455240F7E63DB8AEF90E026
:100F100052D9F9DB46DF2196E2E0E8C018DFEDCFD9
:100F20001092C1001092C000089508950F931F936E
:100F30008B016091C0007091C100A801E2D0809146
:100F4000C0009091C100800F911F9093C1008093C9
:100F5000C0001F910F910895A0E0B0E0E1EBF7E031
:100F6000A3C09C016B018091C0009091C1006115EC
:100F70007105B9F08C017901EB0105C00F5F1F4FBE
:100F80000894E11CF11CC801CCD0F70160818617E0
:100F900011F0C801CED0219789F78091C0009091BF
:100FA000C1008C0D9D1D9093C1008093C000CDB7F2
:100FB000DEB7E8E095C004D042DF20DC1FDCFDCFC7
:100FC00078940895629FD001739FF001829FE00D95
:100FD000F11D649FE00DF11D929FF00D839FF00DB8
:100FE000749FF00D659FF00D9927729FB00DE11D64
:100FF000F91F639FB00DE11DF91FBD01CF01112441
:101000000895AA1BBB1B51E107C0AA1FBB1FA6174F
:10101000B70710F0A61BB70B881F991F5A95A9F7A1
:1010200080959095BC01CD01089597FB092E072668
:101030000AD077FD04D0E5DF06D000201AF47095C1
:1010400061957F4F0895F6F7909581959F4F08958C
:10105000A1E21A2EAA1BBB1BFD010DC0AA1FBB1FBC
:10106000EE1FFF1FA217B307E407F50720F0A21B2E
:10107000B30BE40BF50B661F771F881F991F1A949B
:1010800069F760957095809590959B01AC01BD01C5
:10109000CF0108952F923F924F925F926F927F926D
:1010A0008F929F92AF92BF92CF92DF92EF92FF9278
:1010B0000F931F93CF93DF93CDB7DEB7CA1BDB0B24
:1010C0000FB6F894DEBF0FBECDBF09942A883988C9
:1010D00048885F846E847D848C849B84AA84B984D0
:1010E000C884DF80EE80FD800C811B81AA81B981DC
:1010F000CE0FD11D0FB6F894DEBF0FBECDBFED01F0
:101100000895DC01CB01FC01E199FECF06C0FFBBD5
:10111000EEBBE09A31960DB20D9241505040B8F7B7
:101120000895E199FECF9FBB8EBBE09A99278DB3BE
:101130000895262FE199FECF9FBB8EBB2DBB0FB626
:10114000F894E29AE19A0FBE01960895F894FFCFC1
:0A1150001D600001006A000F00009E
:00000001FF
