:100000003BC0A0C054C053C052C051C050C04FC02C
:100010004EC04DC04CC04BC04AC049C048C047C08C
:1000200046C045C044C05BC664C564C583C507C639
:1000300066C6A8C5A8C556C600020406080A0C0E66
:1000400010121416181A1C1E20222426282A2C2EC0
:1000500030323436383A3C3E00020406080A0C0EB0
:1000600010120116011A1C1E20222426012A2C2EF1
:1000700001010136383A3C3E11241FBECFE5D4E0E1
:10008000DEBFCDBF10E0A0E6B0E0E4E6FFE002C0D6
:1000900005900D92AA36B107D9F710E0AAE6B0E0B4
:1000A00001C01D92A03CB107E1F7A4D659C7A8CF63
:1000B000FC01808591859B01281B390BC901718743
:1000C00060872081318142815381A0E0B0E08217B6
:1000D0009307A407B50750F4281B390B4A0B5B0B99
:1000E000208331834283538380E008958481958106
:1000F000A681B78180839183A283B38381E0089531
:10010000AC01440F551F445050408FB7F8946CB564
:100110007DB58FBF2FB7F8948CB59DB52FBF861BCB
:10012000970B84179507B0F30895CF93DF93EC01F5
:10013000009729F088EE93E0E3DF2197D9F7DF916C
:10014000CF9108951F920F920FB60F9211242F9303
:100150003F938F939F932CB53DB5829916C08091A4
:10016000900090919100281B390B30938F002093C1
:100170008E008CE4809379009F918F913F912F9115
:100180000F900FBE0F901F90189530939100209301
:100190009000F2CF809179008823E9F020918E00C1
:1001A00030918F0080918E0090918F002817390731
:1001B000A9F780917A0090917B002817390758F0B1
:1001C00080917C0090917D008217930720F03093FE
:1001D00078002093770008951092790010927800AB
:1001E00010927700D7DF8091770090917800009788
:1001F000C9F30895C29AC19AC09A95989498939811
:100200000895813028F49398813038F4C098089587
:10021000833048F494988130C8F3833040F08530BF
:10022000A8F7C2980895853070F79598EDCFC198DA
:100230000895823009F441C0833080F08430A9F100
:100240008430D8F49498C19AC29A03FDC29884E08D
:1002500087B9379880B7886080BF0895882351F4A4
:1002600094989398959A84E087B9379880B7886076
:1002700080BF0895813079F008958530E9F7959829
:10028000C29AC19A03FDC09885E087B9379880B7B4
:10029000886080BF08959398C09AC29A03FDC19860
:1002A00080B7877F80BF379A089593989598949ADE
:1002B00080B7877F80BF379A089594989598939ACE
:1002C00085E087B9379880B7886080BF089582300D
:1002D000A1F0833058F08430B9F0843060F484E0C9
:1002E00087B9379880B7886080BF08958823B9F3AD
:1002F000813051F008958530E9F785E087B9379866
:1003000080B7886080BF089580B7877F80BF379AA5
:100310000895802F877081508CDF802F877089CF60
:1003200090E0A0E0B0E02091860030918700442763
:1003300037FD4095542FBC01CD0163D524E630E054
:1003400040E050E0A4D5DA01C90108959201402FA0
:10035000487003FF06C08091860090918700281B9B
:10036000390B8091820090918300821B930B9093B4
:1003700083008093820097FD12C0442309F40895FE
:10038000802F877F082FC29AC19AC09A87708130C8
:1003900020F0833068F0853048F0939A0895442324
:1003A00071F7802F8860082F87702BCF959A08955A
:1003B000949A089580FF0DC004FD0DC0239482E13E
:1003C000821510F452E1252E80E0222009F481E00C
:1003D000089504FDF3CF2A94F2CFE22D04FFE160EB
:1003E000F0E0E85CFF4FE4912E2E8E2F817008958F
:1003F000E22D04FDE160F0E0E85CFF4FE4912E2E79
:100400008E2F81700895C6DE40917700509178005C
:100410008091840090918500481B590B8091880041
:10042000909189004817590714F440E050E020915A
:100430008600309187008091BA009091BB008217AE
:1004400093072CF405969093BB008093BA0028176D
:1004500039070CF4C901481759070CF4CA012C01DB
:1004600008959093B8008093B7009093B000809364
:10047000AF008091A2009091A3009093AC00809374
:10048000AB009C013695279536952795369527958F
:100490003093B4002093B300C9019695879590934B
:1004A000A6008093A500AC015695479556954795B3
:1004B0008091B900823059F0833019F0813089F091
:1004C0000895241B350B3093B4002093B300809122
:1004D000B3009091B400841B950B9093B40080936B
:1004E000B3008091B3009091B400841B950B90935E
:1004F000B4008093B30008958FEF8093A4000F7D24
:100500005092BB004092BA008091B1009091B2002D
:10051000A8CF902F9F7B092F8091750081110064D7
:10052000809176008093B90080916A0090916B0071
:10053000880F991F90937B0080937A0080916C00C4
:1005400090916D00880F991F90937D0080937C009F
:10055000E0916E00F0916F00EE0FFF1FF0937F00AF
:10056000E0937E008091720090917300880F991F34
:1005700090938100809380002091700030917100F1
:10058000220F331F2E1B3F0BC901880F991F880FA5
:10059000991F880F991F64E670E052D4260F371F09
:1005A0003093870020938600E61BF70BF0938500BD
:1005B000E093840088E0B4DE909389008093880003
:1005C00088E0AEDE90938B0080938A0089E1A8DEFC
:1005D00090938D0080938C000895CF92DF92FF92CC
:1005E0001F93CF93DF93EC016B01F42E142FF4DDF6
:1005F000212F1F2D8C179D07D0F3C816D906B8F3ED
:10060000122F1150A1F7DF91CF911F91FF90DF9032
:10061000CF90089560917E0070917F0080917A0064
:1006200090917B0042E3D9CF8091740090E0880FD5
:10063000991F20917E0030917F0060917C00709125
:100640007D00820F931F4FE0C8CF05C081B7815056
:10065000B9F081BFC1DDC0DD209180003091810003
:100660002817390798F3B8DD209180003091810078
:100670008217930768F481B78F5F51F081BFACDDBB
:10068000ABDD20918000309181008217930798F3B1
:10069000089581E093D3609163007091640080912C
:1006A00061009091620090D3609167007091680042
:1006B000809165009091660087D385C3A1E0B0E08A
:1006C000E3E6F3E016C4F8948FEF81BF19BE1FBCB8
:1006D00082E08EBD87E088BB87E387BB15BA14BA7A
:1006E00012BA88E381BB86DDC298C198C09885E0C4
:1006F00090E01BDDC29AC19AC09A929A85B78C7F0E
:10070000816085BF8BB780648BBF10928F00109281
:100710008E0088EE93E0909373008093720084E8DB
:1007200093E090936B0080936A0088E998E090933F
:100730006D0080936C0084E294E090936F0080934E
:100740006E0084E497E0909371008093700085E0E0
:10075000809374008FEF9FEF9093950080939400A7
:100760008AE1898381E02AD3CE01019661E070E0BD
:100770002BD329D389818A3141F07894CADE8AEF5C
:1007800090E0D3DC2196E2E0D0C383DFF6CFCF92B6
:10079000DF92EF92FF92CF93DF93262FE82FF0E0C6
:1007A00080E197E2BF0160D36B0130E02E9F7001C2
:1007B0002F9FF00C3E9FF00C1124E114F104B1F0D6
:1007C000C0E0D0E0802F87701CDD86E090E098DCF0
:1007D000C29AC19AC09A802F8770813070F4939A20
:1007E000C6018EDC2196CE15DF0560F3DF91CF9137
:1007F000FF90EF90DF90CF900895833020F0853008
:1008000070F7959AEDCF949AEBCF1F93087F81DD17
:1008100010E0912F9770802F887F082F092B812F50
:1008200008DD812F8A5F6AE0B2DF85E090E07DDC41
:100830001F5F153071F71F910895A0E0B0E0E2E26C
:10084000F4E04CC3E2DFE6DE00DF8CE062E39FDF32
:1008500030EA832E36E8932E31E0A32EB12C2FEF11
:10086000622E2FE7722EC090B100D090B200C2DC91
:10087000109283001092820044245524802F877F99
:10088000082F86FF03C0C298C198C098CDDEB2DCA5
:1008900040908A0050908B0088E098EFA1E0B0E093
:1008A00080939C0090939D00A0939E00B0939F0026
:1008B0009FEFE92E9FE3F92E10E080919C0090912C
:1008C0009D00A0919E00B0919F008093980090930E
:1008D0009900A0939A00B0939B0082E1282E1AC041
:1008E0000F7E34DD8FB7F8946CB57DB58FBF88E986
:1008F00090E0DEDB882309F0A4C0802F87705ADDEA
:10090000882391F4459B0AC00F7E802F877052DDAB
:10091000882351F44599E4CF0061E3CF0061802F33
:10092000877048DD8823B1F38FB7F894CCB5DDB577
:100930008FBF9E012C193D098091BC009091BD0094
:10094000820F931F9093A3008093A2003093BD0069
:100950002093BC008E199F0995958795959587954D
:10096000E80EF91E1F5F183708F467C095EEE91608
:100970009BE1F90608F482C06E0118E7902F97708A
:10098000892F8F5F863008F086508770902F987F70
:10099000982BC29AC19AC09A813078F5939A092F00
:1009A000077F47DC802F877099F180919C009091A0
:1009B0009D00A0919E00B0919F008897A109B10968
:1009C00080939C0090939D00A0939E00B0939F0005
:1009D000805A9648A140B04040F480929C0090928A
:1009E0009D00A0929E00B0929F004114510409F412
:1009F0003ECF8CE291E084DB60CF833000F1853024
:100A000068F6959A092F077F14DC802F877069F6A6
:100A1000C1DB4091770050917800809184009091E3
:100A20008500481B590B80918800909189004817D8
:100A300059074CF444245524B8CF6E019FCF949AA3
:100A4000AECF10E09BCF20918A0030918B004217EF
:100A500053074CF080918C0090918D009A0184177F
:100A600095070CF49C01C201241935093595279589
:100A7000359527952901480E591E97CFD093B2007E
:100A8000C093B100902F9770892F8F5F863008F048
:100A900086508770902F987F092F082BCADB2CDD9A
:100AA000DD2410E0459B69C00F7ED0FC69C08FB784
:100AB000F894ECB4FDB48FBFE12FF0E0E930F1051C
:100AC000A8F0D093B200C093B10094DB10928300E1
:100AD0001092820044245524077F8091A40088232B
:100AE00009F4C1CECDB7DEB7EDE014C2ED5EFF4F25
:100AF000099412E08091A9009091AA009701281B07
:100B0000390BF092AA00E092A9008091A500909183
:100B1000A6002817390708F416C18091A700909104
:100B2000A8009093A6008093A5002224802F8770B0
:100B300080FF85C08091AF009091B0009701281B85
:100B4000390BF092B000E092AF008091AB00909131
:100B5000AC002817390708F0DCC0821B930B909378
:100B6000AC008093AB0039DC882309F0F4C0AE01FF
:100B700013E0D394EA01459997CF0061D0FE97CF57
:100B8000E5DB95CF17E08091B7009091B800970111
:100B9000281B390BF092B800E092B7008091B300A7
:100BA0009091B4002817390708F4C5C08091B500AA
:100BB0009091B6009093B4008093B3008091A2000E
:100BC0009091A3008151974208F092C0902F9770A6
:100BD000892F8F5F863008F086508770902F987F1E
:100BE000092F082B26DB80919600909197009701A2
:100BF000281B390BF0929700E092960080919200AA
:100C0000909193002817390708F4CFC08091940081
:100C10009091950090939300809392008091790039
:100C2000815080937900882309F0C5C01092780024
:100C30001092770010928F0010928E00BCC08091AD
:100C4000AF009091B0009701281B390BF092B000D3
:100C5000E092AF008091AB009091AC00281739076B
:100C600008F057C0821B930B9093AC008093AB00AD
:100C7000BFDB882309F06FC0AE0114E07ACFBADA87
:100C8000109283001092820044245524902F977F65
:100C9000292F2770822F8D5F863008F0865087704D
:100CA000987F092F082B13DBF092B000E092AF0081
:100CB0007092AC006092AB00F092AA00E092A900A2
:100CC0008091A2009091A30096958795969587951F
:100CD000969587959093A6008093A5000062AE013B
:100CE00011E047CF90DB06FF0FC04114510461F4BF
:100CF000D093B200C093B1001092A400E6CECE0112
:100D0000B0DBAE0116E035CFF092AA00E092A90068
:100D1000E6CF8091AD009091AE009093AC008093AF
:100D2000AB0005FFACCFD093B200C093B10081E01F
:100D30008093A400CACE821B930B9093B40080933F
:100D4000B300AE0116CF821B930B9093A600809345
:100D5000A500AE010ECFA7014A52504005FF12C0B8
:100D6000CA018C1B9D0B969587959093A300809349
:100D7000A200969587959093BD008093BC000F7D4F
:100D800015E0F7CE9A012C1B3D0B8091BC00909191
:100D9000BD00820F931F9093A3008093A200309315
:100DA000BD002093BC0015E0E4CE821B930B909312
:100DB000930080939200AE0118E0DBCE1092BF004A
:100DC0001092BE00089508950F931F938B016091B8
:100DD000BE007091BF00A801B3D08091BE00909179
:100DE000BF00800F911F9093BF008093BE001F91A2
:100DF0000F91089504D062DC20DD1FDDFDCF7894D3
:100E00000895629FD001739FF001829FE00DF11D54
:100E1000649FE00DF11D929FF00D839FF00D749F74
:100E2000F00D659FF00D9927729FB00DE11DF91F20
:100E3000639FB00DE11DF91FBD01CF01112408957D
:100E4000AA1BBB1B51E107C0AA1FBB1FA617B707F0
:100E500010F0A61BB70B881F991F5A95A9F780950C
:100E60009095BC01CD01089597FB092E07260AD065
:100E700077FD04D0E5DF06D000201AF47095619567
:100E80007F4F0895F6F7909581959F4F0895A1E2C1
:100E90001A2EAA1BBB1BFD010DC0AA1FBB1FEE1FF4
:100EA000FF1FA217B307E407F50720F0A21BB30B3F
:100EB000E40BF50B661F771F881F991F1A9469F7BB
:100EC00060957095809590959B01AC01BD01CF0117
:100ED00008952F923F924F925F926F927F928F92DE
:100EE0009F92AF92BF92CF92DF92EF92FF920F93B9
:100EF0001F93CF93DF93CDB7DEB7CA1BDB0B0FB6C3
:100F0000F894DEBF0FBECDBF09942A88398848887F
:100F10005F846E847D848C849B84AA84B984C88415
:100F2000DF80EE80FD800C811B81AA81B981CE0F0C
:100F3000D11D0FB6F894DEBF0FBECDBFED010895F1
:100F4000DC01CB01FC01E199FECF06C0FFBBEEBB8B
:100F5000E09A31960DB20D9241505040B8F7089585
:040F6000F894FFCF33
:0A0F64001A600001006A000D000091
:00000001FF
