:100000003BC0A0C054C053C052C051C050C04FC02C
:100010004EC04DC04CC04BC04AC049C048C047C08C
:1000200046C045C044C053C558C458C477C4F5C47D
:1000300050C596C496C410C500020406080A0C0EEA
:1000400010121416181A1C1E20222426282A2C2EC0
:1000500030323436383A3C3E00020406080A0C0EB0
:1000600010120116011A1C1E20222426012A2C2EF1
:1000700001010136383A3C3E11241FBECFE5D4E0E1
:10008000DEBFCDBF10E0A0E6B0E0E6E5FEE002C0D6
:1000900005900D92AA36B107D9F710E0AAE6B0E0B4
:1000A00001C01D92A23CB107E1F71DD6D2C6A8CF70
:1000B000FC01808591859B01281B390BC901718743
:1000C00060872081318142815381A0E0B0E08217B6
:1000D0009307A407B50750F4281B390B4A0B5B0B99
:1000E000208331834283538380E008958481958106
:1000F000A681B78180839183A283B38381E0089531
:10010000AC01440F551F445050408FB7F8946CB564
:100110007DB58FBF2FB7F8948CB59DB52FBF861BCB
:10012000970B84179507B0F30895CF93DF93EC01F5
:10013000009729F088EE93E0E3DF2197D9F7DF916C
:10014000CF9108951F920F920FB60F9211242F9303
:100150003F938F939F932CB53DB5829916C08091A4
:10016000930090919400281B390B309392002093B8
:1001700091008CE4809378009F918F913F912F9113
:100180000F900FBE0F901F901895309394002093FE
:100190009300F2CF809178008823E9F020919100BC
:1001A0003091920080919100909192002817390728
:1001B000A9F78091790090917A002817390758F0B3
:1001C00080917B0090917C008217930720F0309300
:1001D00077002093760008951092780010927700AF
:1001E00010927600D7DF809176009091770000978B
:1001F000C9F308959598AC98C098949AAD9AAB9A23
:100200000895813010F4C09A0895833010F4AC9AA8
:1002100008958530C0F7959A0895823051F1833062
:1002200060F0843061F1843098F4AD9AAC98959880
:1002300003FD959A87E087B90895882331F4AD9A34
:10024000AB9A949887E087B90895813059F0089562
:100250008530E9F7949A9598AC9803FDC09A86E0AA
:1002600087B90895AB9AC098959803FDAC9A17B8D2
:100270000895AD9A949AAB9886E087B90895AB9AA1
:10028000949AAD9817B80895823081F0833038F091
:10029000843079F0843040F487E087B9089588236A
:1002A000D9F3813031F008958530E9F786E087B9D8
:1002B000089517B80895802F87708150AEDF802F82
:1002C0008770ABCF90E0A0E0B0E020918500309146
:1002D0008600442737FD4095542FBC01CD010AD537
:1002E00024E630E040E050E04BD5DA01C901089542
:1002F0009201402F487003FF06C0809185009091C5
:100300008600281B390B8091810090918200821B0E
:10031000930B909382008093810097FD07C0442344
:1003200021F0077F9598AC98C09808954423E9F789
:10033000802F8860082F877064CF80FF0DC004FD78
:100340000DC0239482E1821510F452E1252E80E045
:10035000222009F481E0089504FDF3CF2A94F2CF1E
:10036000E22D04FFE160F0E0E85CFF4FE4912E2E07
:100370008E2F81700895E22D04FDE160F0E0E85CCD
:10038000FF4FE4912E2E8E2F8170089503DF409150
:100390007600509177008091830090918400481BF3
:1003A000590B80918700909188004817590714F4E1
:1003B00040E050E020918500309186008091BC00A3
:1003C0009091BD00821793072CF405969093BD0081
:1003D0008093BC00281739070CF4C9019C01481709
:1003E00059070CF49A0180918D0090918E0082172C
:1003F00093073CF480918F00909190002817390763
:100400001CF00064290108950F7B29010895909341
:10041000BB008093BA009093B3008093B2008091A8
:10042000A5009091A6009093AF008093AE009695A2
:10043000879596958795969587959093B700809325
:10044000B600969587959093A9008093A80008958B
:100450008FEF8093A7000F795092BD004092BC00AF
:100460008091B4009091B500D2CFEF92FF92902F7F
:100470009F77092F809175008111006880916A0033
:1004800090916B00880F991F90937A008093790068
:1004900080916C0090916D00880F991F90937C0063
:1004A00080937B00E0916E00F0916F00EE0FFF1FD4
:1004B000F0937E00E0937D00809172009091730034
:1004C000880F991F9093800080937F002091700087
:1004D00030917100220F331F2E1B3F0BC901880F73
:1004E000991F880F991F880F991F64E670E021D427
:1004F0007B01E20EF31EF0928600E0928500E61B7F
:10050000F70BF0938400E093830088E0DBDE9093A8
:1005100088008093870082E1D5DE90938E008093DF
:100520008D00E81AF90AF0929000E0928F0088E0BE
:10053000C9DE90938A008093890089E1C3DE90939D
:100540008C0080938B00FF90EF900895CF92DF9204
:10055000EF92FF92CF93DF93262FE82FF0E080E118
:1005600097E2BF01FAD36B0130E02E9F70012F9FFD
:10057000F00C3E9FF00C1124E114F10489F0C0E06E
:10058000D0E0802F87703DDE86E090E0B9DD959861
:10059000AC98C098C601B4DD2196CE15DF0588F36E
:1005A000DF91CF91FF90EF90DF90CF9008951F9350
:1005B000087F81DE10E0912F9770802F887F082FB1
:1005C000092B812F2ADE812F8A5F6AE0BFDF85E059
:1005D00090E0ABDD1F5F153071F71F910895CF924A
:1005E000DF92FF921F93CF93DF93EC016B01F42E08
:1005F000142FF2DD212F1F2D8C179D07D0F3C81665
:10060000D906B8F3122F1150A1F7DF91CF911F91A6
:10061000FF90DF90CF90089560917D0070917E00F3
:100620008091790090917A0042E3D9CF8091740053
:1006300090E0880F991F20917D0030917E0060919D
:100640007B0070917C00820F931F4FE0C8CFA0E029
:10065000B0E0ECE2F3E0BBC3AADFDEDF8CE062E3F4
:1006600075DF28E0622E28EF722E21E0822E912C79
:1006700090EAC92E96E8D92E91E0E92EF12CAA2411
:10068000A394B8DD10928200109281004424552476
:10069000802F877F082F87FF03C0959AAC9AC09A56
:1006A000C5DFA8DD4090890050908A0060929F00CD
:1006B0007092A0008092A1009092A200CFEFDFE3A1
:1006C00010E080919F009091A000A091A100B091B6
:1006D000A20080939B0090939C00A0939D00B093F8
:1006E0009E0082E1282E1AC00F7E02DE8FB7F8949A
:1006F0006CB57DB58FBF8BE990E0DADC882309F01B
:1007000096C0802F877019DE882391F4459B0AC01C
:100710000F7E802F877011DE882351F44599E4CF36
:100720000061E3CF0061802F877007DE8823B1F37B
:100730008FB7F8942CB53DB58FBF8091B4009091E0
:10074000B500A901481B590B3093B5002093B400A4
:100750008091BE009091BF00840F951F9093A600DA
:100760008093A5005093BF004093BE008C1B9D0B4F
:100770009595879595958795C80FD91F1F5F183751
:1007800030F02BE1C53ED20708F46EC018E7902F79
:100790009770892F8F5F863008F086508770902F72
:1007A000907F9598AC98C098092F082B36DD802F44
:1007B000877041F180919F009091A000A091A100CD
:1007C000B091A2008897A109B10980939F009093EE
:1007D000A000A093A100B093A200805A9648A14027
:1007E000B04040F4C0929F00D092A000E092A100DF
:1007F000F092A2004114510409F443CF8CE291E03D
:100800007FDC5FCFC7DC409176005091770080910C
:10081000830090918400481B590B80918700909130
:100820008800481759072CF444245524C3CF10E0FE
:10083000AECF2091890030918A00421753074CF0C7
:1008400080918B0090918C009A01841795070CF48D
:100850009C01C201241935093595279535952795B1
:100860002901480E591EA6CF902F9770892F8F5FB0
:10087000863008F086508770902F987F092F082BBC
:10088000CCDCE6DDBB2410E0459B68C00F7E06FD96
:100890001FC08B2DB39480FD1BC08FB7F894CCB5CF
:1008A000DDB58FBFE12FF0E0E930F10598F0A2DC73
:1008B000109282001092810044245524077F809179
:1008C000A700882309F4DDCECDB7DEB7EDE09BC2EB
:1008D0000FDDE3CFED5EFF4F099412E08091AC0095
:1008E0009091AD009E01281B390BD093AD00C093B1
:1008F000AC008091A8009091A9002817390708F44E
:1009000002C18091AA009091AB009093A9008093BE
:10091000A8002224802F877080FF7FC08091B200C2
:100920009091B3009E01281B390BD093B300C09364
:10093000B2008091AE009091AF002817390708F0FF
:10094000D5C0821B930B9093AF008093AE0008DD5F
:10095000882309F0E6C013E0459998CF006197CF4E
:1009600017E08091BA009091BB009E01281B390BC3
:10097000D093BB00C093BA008091B6009091B700AD
:100980002817390708F4C6C08091B8009091B900C3
:100990009093B7008093B6008091A5009091A60037
:1009A0008151974208F05EC0902F9770892F8F5F1A
:1009B000863008F086508770902F987F092F082B7B
:1009C0002CDC8091990090919A009E01281B390B94
:1009D000D0939A00C09399008091950090919600D1
:1009E0002817390708F4D8C0809197009091980093
:1009F0009093960080939500809178008150809329
:100A00007800882341F410927700109276001092BB
:100A100092001092910018E037CF8091B20090912F
:100A2000B3009E01281B390BD093B300C093B200D2
:100A30008091AE009091AF002817390708F056C09A
:100A4000821B930B9093AF008093AE0094DC8823BD
:100A500009F067C014E018CF99DC07FF41C04114CA
:100A60005104F1F51092A70022CFC4DB109282004E
:100A70001092810044245524902F977F292F2770AE
:100A8000822F8D5F863008F086508770987F092FFF
:100A9000082BFADBD093B300C093B2008FEF9FE72F
:100AA0009093AF008093AE00D093AD00C093AC00A4
:100AB0008091A5009091A60096958795969587952B
:100AC000969587959093A9008093A800006211E005
:100AD000DBCE8091B4009091B50099DC16E0D4CEC5
:100AE000D093AD00C093AC0011E0CECE8091B000A9
:100AF0009091B1009093AF008093AE0005FFB5CF09
:100B0000A092A700D4CE821B930B9093A900809350
:100B1000A800BACE821B930B9093B7008093B600C7
:100B2000B3CEAE014A52504005FF1BC08091B400C5
:100B30009091B5009A01281B390BC9015093B5005B
:100B40004093B400969587959093A6008093A50056
:100B5000969587959093BF008093BE000F7D15E01A
:100B600093CE8091B4009091B5009A01281B390B67
:100B70005093B5004093B4008091BE009091BF00A7
:100B8000820F931F9093A6008093A5003093BF001F
:100B90002093BE0015E078CE821B930B90939600B5
:100BA0008093950018E070CE81E081D06091630061
:100BB0007091640080916100909162007ED060919C
:100BC000670070916800809165009091660075D013
:100BD00073C0A1E0B0E0EEEEF5E004C1F89419BEF8
:100BE0001FBC82E08EBD18BA81E387BB8AE285BB59
:100BF0008AE384BB80E182BB80E381BB379880B706
:100C0000886080BF429AF6DA959AAC9AC09A85E0DD
:100C100090E08BDA9598AC98C098929A85B78C7FC3
:100C2000816085BF8BB780648BBF10929200109259
:100C3000910088EE93E0909373008093720084E8B3
:100C400093E090936B0080936A0088E998E090931A
:100C50006D0080936C0084E294E090936F00809329
:100C60006E0084E497E0909371008093700085E0BB
:100C7000809374008FEF9FEF90939800809397007C
:100C800089E1898381E013D0CE01019661E070E0B3
:100C900014D012D08981893141F07894E6DB8AEF53
:100CA00090E043DA2196E2E0B9C07EDFF6CF109201
:100CB000C1001092C000089508950F931F938B01F7
:100CC0006091C0007091C100A801B3D08091C000B4
:100CD0009091C100800F911F9093C1008093C0003C
:100CE0001F910F91089504D074DFB1DCB0DCFDCF0B
:100CF00078940895629FD001739FF001829FE00D68
:100D0000F11D649FE00DF11D929FF00D839FF00D8A
:100D1000749FF00D659FF00D9927729FB00DE11D36
:100D2000F91F639FB00DE11DF91FBD01CF01112413
:100D30000895AA1BBB1B51E107C0AA1FBB1FA61722
:100D4000B70710F0A61BB70B881F991F5A95A9F774
:100D500080959095BC01CD01089597FB092E07263B
:100D60000AD077FD04D0E5DF06D000201AF4709594
:100D700061957F4F0895F6F7909581959F4F08955F
:100D8000A1E21A2EAA1BBB1BFD010DC0AA1FBB1F8F
:100D9000EE1FFF1FA217B307E407F50720F0A21B01
:100DA000B30BE40BF50B661F771F881F991F1A946E
:100DB00069F760957095809590959B01AC01BD0198
:100DC000CF0108952F923F924F925F926F927F9240
:100DD0008F929F92AF92BF92CF92DF92EF92FF924B
:100DE0000F931F93CF93DF93CDB7DEB7CA1BDB0BF7
:100DF0000FB6F894DEBF0FBECDBF09942A8839889C
:100E000048885F846E847D848C849B84AA84B984A2
:100E1000C884DF80EE80FD800C811B81AA81B981AE
:100E2000CE0FD11D0FB6F894DEBF0FBECDBFED01C2
:100E30000895DC01CB01FC01E199FECF06C0FFBBA8
:100E4000EEBBE09A31960DB20D9241505040B8F78A
:060E50000895F894FFCFA5
:0A0E560019600001006A000C0000A2
:00000001FF
