:100000003BC0A0C054C053C052C051C050C04FC02C
:100010004EC04DC04CC04BC04AC049C048C047C08C
:1000200046C045C044C084C58DC48DC4ACC430C571
:100030008FC5D1C4D1C47FC500020406080A0C0EC6
:1000400010121416181A1C1E20222426282A2C2EC0
:1000500030323436383A3C3E00020406080A0C0EB0
:1000600010120116011A1C1E20222426012A2C2EF1
:1000700001010136383A3C3E11241FBECFE5D4E0E1
:10008000DEBFCDBF10E0A0E6B0E0E8E1F0E102C0E5
:1000900005900D92AA36B107D9F710E0AAE6B0E0B4
:1000A00001C01D92A13CB107E1F7E9D6B3C7A8CFC3
:1000B000FC01808591859B01281B390BC901718743
:1000C00060872081318142815381A0E0B0E08217B6
:1000D0009307A407B50750F4281B390B4A0B5B0B99
:1000E000208331834283538380E008958481958106
:1000F000A681B78180839183A283B38381E0089531
:10010000AC01440F551F445050408FB7F8946CB564
:100110007DB58FBF2FB7F8948CB59DB52FBF861BCB
:10012000970B84179507B0F30895CF93DF93EC01F5
:10013000009729F088EE93E0E3DF2197D9F7DF916C
:10014000CF9108951F920F920FB60F9211242F9303
:100150003F938F939F932CB53DB5829916C08091A4
:10016000910090919200281B390B309390002093BE
:100170008F008CE480937A009F918F913F912F9113
:100180000F900FBE0F901F90189530939200209300
:100190009100F2CF80917A008823E9F020918F00BE
:1001A0003091900080918F0090919000281739072E
:1001B000A9F780917B0090917C002817390758F0AF
:1001C00080917D0090917E008217930720F03093FC
:1001D000790020937800089510927A0010927900A7
:1001E00010927800D7DF8091780090917900009785
:1001F000C9F308959598AC98C098949AAD9AAB9A23
:100200000895813010F4C09A0895833010F4AC9AA8
:1002100008958530C0F7959A0895823051F1833062
:1002200060F0843061F1843098F4AD9AAC98959880
:1002300003FD959A87E087B90895882331F4AD9A34
:10024000AB9A949887E087B90895813059F0089562
:100250008530E9F7949A9598AC9803FDC09A86E0AA
:1002600087B90895AB9AC098959803FDAC9A17B8D2
:100270000895AD9A949AAB9886E087B90895AB9AA1
:10028000949AAD9817B80895823081F0833038F091
:10029000843079F0843040F487E087B9089588236A
:1002A000D9F3813031F008958530E9F786E087B9D8
:1002B000089517B80895802F87708150AEDF802F82
:1002C0008770ABCF90E0A0E0B0E020918700309144
:1002D0008800442737FD4095542FBC01CD01D6D569
:1002E00024E630E040E050E017D6DA01C901089575
:1002F0009201402F487003FF06C0809187009091C3
:100300008800281B390B8091830090918400821B08
:10031000930B909384008093830097FD07C0442340
:1003200021F0077F9598AC98C09808954423E9F789
:10033000802F8860082F877064CF80FF0DC004FD78
:100340000DC0239482E1821510F452E1252E80E045
:10035000222009F481E0089504FDF3CF2A94F2CF1E
:10036000E22D04FFE160F0E0E85CFF4FE4912E2E07
:100370008E2F81700895E22D04FDE160F0E0E85CCD
:10038000FF4FE4912E2E8E2F8170089503DF409150
:100390007800509179008091850090918600481BEB
:1003A000590B8091890090918A004817590714F4DD
:1003B00040E050E020918700309188008091BB00A0
:1003C0009091BC00821793072CF405969093BC0083
:1003D0008093BB00281739070CF4C9014817590747
:1003E0000CF4CA012C0108959093B9008093B800D1
:1003F0009093B1008093B0008091A3009091A400ED
:100400009093AD008093AC009C013695279536956E
:100410002795369527953093B5002093B400C901F0
:10042000969587959093A7008093A600AC0156956A
:100430004795569547958091BA00823059F08330A0
:1004400019F0813089F00895241B350B3093B500E5
:100450002093B4008091B4009091B500841B950B5B
:100460009093B5008093B4008091B4009091B50052
:10047000841B950B9093B5008093B40008958FEF83
:100480008093A5000F7D5092BC004092BB008091EC
:10049000B2009091B300A8CF902F9F7B092F80913D
:1004A000750081110064809176008093BA0080917C
:1004B0006A0090916B00880F991F90937C00809345
:1004C0007B0080916C0090916D00880F991F909334
:1004D0007E0080937D00E0916E00F0916F00EE0F42
:1004E000FF1FF0938000E0937F0080917200909155
:1004F0007300880F991F9093820080938100209150
:10050000700030917100220F331F2E1B3F0BC90169
:10051000880F991F880F991F880F991F64E670E054
:10052000D4D4260F371F3093880020938700E61B12
:10053000F70BF0938600E093850070938A00609338
:10054000890088E0BFDE90938C0080938B0089E166
:10055000B9DE90938E0080938D000895CF92DF9244
:10056000EF92FF92CF93DF93262FE82FF0E080E108
:1005700097E2BF01BED46B0130E02E9F70012F9F28
:10058000F00C3E9FF00C1124E114F10489F0C0E05E
:10059000D0E0802F877035DE86E090E0B1DD959861
:1005A000AC98C098C601ACDD2196CE15DF0588F366
:1005B000DF91CF91FF90EF90DF90CF9008951F9340
:1005C000087F79DE10E0912F9770802F887F082FA9
:1005D000092B812F22DE812F8A5F6AE0BFDF85E051
:1005E00090E0A3DD1F5F153071F71F910895CF9242
:1005F000DF92FF921F93CF93DF93EC016B01F42EF8
:10060000142FEADD212F1F2D8C179D07D0F3C8165C
:10061000D906B8F3122F1150A1F7DF91CF911F9196
:10062000FF90DF90CF900895EF92FF921F93CF93AA
:10063000DF93D2DD7C01EC0110E003C01F5F1233B9
:10064000A9F0CADDC817D90708F4EC018E159F057B
:1006500008F47C01CE018E199F09099778F380E098
:1006600090E0CDB7DEB7E5E0A2C409C0CE018E0DA3
:100670009F1D96958795CDB7DEB7E5E098C460914C
:100680007F007091800080917B0090917C0042E31C
:10069000AECF8091740090E0880F991F20917F0069
:1006A0003091800060917D0070917E00820F931FD9
:1006B0004FE09DCFA0E0B0E0EFE5F3E054C4DFDF12
:1006C000FADD8CE062E34ADF70EA872E76E8972E47
:1006D00071E0A72EB12C6FEF662E6FE7762EC090DB
:1006E000B200D090B30086DD109284001092830097
:1006F00044245524802F877F082F86FF03C0959AB6
:10070000AC9AC09AC6DF76DD40908B0050908C008A
:1007100088E098EFA1E0B0E080939D0090939E0068
:10072000A0939F00B093A000CFEFDFE310E0809193
:100730009D0090919E00A0919F00B091A000809399
:10074000990090939A00A0939B00B0939C0052E173
:10075000252E1AC00F7ECCDD8FB7F8946CB57DB511
:100760008FBF89E990E0A4DC882309F08FC0802F37
:100770008770E3DD882391F4459B0AC00F7E802FAC
:100780008770DBDD882351F44599E4CF0061E3CF26
:100790000061802F8770D1DD8823B1F38FB7F89483
:1007A000ECB4FDB48FBFC7018C199D092091BD0029
:1007B0003091BE00280F391F9093BE008093BD007A
:1007C000C9018C1B9D0B9595879595958795C80FAD
:1007D000D91F1F5F183708F442C09BE1C53ED907F7
:1007E00008F471C0670118E7902F9770892F8F5F09
:1007F000863008F086508770902F907F9598AC983F
:10080000C098092F082B09DD802F877051F1809146
:100810009D0090919E00A0919F00B091A0008897AC
:10082000A109B10980939D0090939E00A0939F0021
:10083000B093A000805A9648A140B04040F4809206
:100840009D0090929E00A0929F00B092A000411443
:10085000510409F448CF8CE291E052DC68CF670183
:10086000C3CF98DC40917800509179008091850049
:1008700090918600481B590B8091890090918A00C5
:10088000481759072CF444245524C1CF10E0ACCFAD
:1008900020918B0030918C00421753074CF08091CF
:1008A0008D0090918E009A01841795070CF49C019D
:1008B000C2012419350935952795359527952901C4
:1008C000480E591EA4CF3093A4002093A300F092A9
:1008D000B300E092B200902F9770892F8F5F86301F
:1008E00008F086508770902F987F092F082B95DC91
:1008F000C6DDDD2410E0459B69C00F7ED0FC69C0D9
:100900008FB7F894CCB5DDB58FBFE12FF0E0E930BB
:10091000F105A8F0F092B300E092B2006BDC109207
:1009200084001092830044245524077F8091A50001
:10093000882309F4D4CECDB7DEB7EDE030C3ED5E49
:10094000FF4F099412E08091AA009091AB009E01A4
:10095000281B390BD093AB00C093AA008091A6004E
:100960009091A7002817390708F416C18091A800B4
:100970009091A9009093A7008093A6002224802F35
:10098000877080FF85C08091B0009091B1009E017A
:10099000281B390BD093B100C093B0008091AC00FC
:1009A0009091AD002817390708F0DCC0821B930B2B
:1009B0009093AD008093AC00D3DC882309F0F4C0A1
:1009C000A70113E0D3947A01459997CF0061D0FE37
:1009D00097CF8EDC95CF17E08091B8009091B90049
:1009E0009E01281B390BD093B900C093B8008091A9
:1009F000B4009091B5002817390708F4C5C080915C
:100A0000B6009091B7009093B5008093B4008091A8
:100A1000A3009091A4008151974208F092C0902FBA
:100A20009770892F8F5F863008F086508770902FDF
:100A3000987F092F082BF1DB809197009091980007
:100A40009E01281B390BD0939800C093970080918A
:100A50009300909194002817390708F4CFC0809133
:100A600095009091960090939400809393008091CC
:100A70007A00815080937A00882309F0C5C01092D3
:100A80007900109278001092900010928F00BCC0F4
:100A90008091B0009091B1009E01281B390BD0933A
:100AA000B100C093B0008091AC009091AD002817C8
:100AB000390708F057C0821B930B9093AD008093C9
:100AC000AC0059DC882309F06FC0A70114E07ACF8D
:100AD00091DB109284001092830044245524902FBF
:100AE000977F292F2770822F8D5F863008F08650E0
:100AF0008770987F092F082BC7DBD093B100C09374
:100B0000B0007092AD006092AC00D093AB00C09387
:100B1000AA008091A3009091A40096958795969540
:100B20008795969587959093A7008093A60000627D
:100B3000A70111E047CF2ADC06FF0FC04114510482
:100B400061F4F092B300E092B2001092A500E6CEFC
:100B5000C7014ADCA70116E035CFD093AB00C093A4
:100B6000AA00E6CF8091AE009091AF009093AD00C7
:100B70008093AC0005FFACCFF092B300E092B200DE
:100B800081E08093A500CACE821B930B9093B500A1
:100B90008093B400A70116CF821B930B9093A700FC
:100BA0008093A600A7010ECFAE014A52504005FF28
:100BB00012C0CA018E199F09969587959093A4003B
:100BC0008093A300969587959093BE008093BD0077
:100BD0000F7D15E0F7CE9A012E193F098091BD00D7
:100BE0009091BE00820F931F9093A4008093A30066
:100BF0003093BE002093BD0015E0E4CE821B930B22
:100C00009093940080939300A70118E0DBCE81E0DD
:100C1000EBD06091630070916400809161009091CD
:100C20006200E8D060916700709168008091650073
:100C300090916600DFD0DDC082E0D6D06091630085
:100C4000709164008091610090916200E9D06091A0
:100C50006700709168008091650090916600E0D017
:100C6000C8C0809177008111089560917D007091D6
:100C70007E0080917B0090917C004AE0B8DCACDA89
:100C800089569B4088F3D0DC0097E9F396958795C9
:100C900090937100809370008AE06AE05FDC88ECDA
:100CA00090E043DA8AE06AE059DC80917B00909121
:100CB0007C0068E67BE049E19ADCB6DC0097E9F36A
:100CC000FC01F695E7952091700030917100C90103
:100CD0008E1B9F0B880F991F880F991F64E670E089
:100CE000F4D0261B370B3093710020937000E60F71
:100CF000F71FF0936F00E0936E009EDFCDCBA1E075
:100D0000B0E0E4E8F6E03AC1F89419BE1FBC82E016
:100D10008EBD18BA81E387BB8AE285BB8AE384BBB8
:100D200080E182BB80E381BB379880B7886080BF59
:100D3000429A60DA959AAC9AC09A85E090E0F5D92B
:100D40009598AC98C098929A85B78C7F816085BF42
:100D50008BB780648BBF1092900010928F0010921E
:100D600073001092720084E893E090936B0080937C
:100D70006A0088E998E090936D0080936C0084E2AB
:100D800094E090936F0080936E0084E497E09093DA
:100D900071008093700085E0809374008FEF9FEF67
:100DA00090939600809395008DE1898381E01CD01B
:100DB000CE01019661E070E01DD01BD089818D319C
:100DC00089F0789410928400109283004424552472
:100DD000077F62DB8AEF90E0A8D9F1DB42DF219642
:100DE000E2E0E8C014DFEDCF1092C0001092BF0027
:100DF000089508950F931F938B016091BF00709128
:100E0000C000A801E2D08091BF009091C000800F87
:100E1000911F9093C0008093BF001F910F91089580
:100E2000A0E0B0E0E5E1F7E0A3C09C016B01809198
:100E3000BF009091C00061157105B9F08C01790176
:100E4000EB0105C00F5F1F4F0894E11CF11CC801A6
:100E5000CCD0F7016081861711F0C801CED0219760
:100E600089F78091BF009091C0008C0D9D1D9093DB
:100E7000C0008093BF00CDB7DEB7E8E095C004D0D6
:100E80003EDF18DC17DCFDCF78940895629FD00117
:100E9000739FF001829FE00DF11D649FE00DF11D35
:100EA000929FF00D839FF00D749FF00D659FF00DE4
:100EB0009927729FB00DE11DF91F639FB00DE11DD1
:100EC000F91FBD01CF0111240895AA1BBB1B51E1DD
:100ED00007C0AA1FBB1FA617B70710F0A61BB70BAA
:100EE000881F991F5A95A9F780959095BC01CD014F
:100EF000089597FB092E07260AD077FD04D0E5DF79
:100F000006D000201AF4709561957F4F0895F6F78A
:100F1000909581959F4F0895A1E21A2EAA1BBB1BA5
:100F2000FD010DC0AA1FBB1FEE1FFF1FA217B307B5
:100F3000E407F50720F0A21BB30BE40BF50B661FCB
:100F4000771F881F991F1A9469F76095709580958F
:100F500090959B01AC01BD01CF0108952F923F9266
:100F60004F925F926F927F928F929F92AF92BF92B9
:100F7000CF92DF92EF92FF920F931F93CF93DF9365
:100F8000CDB7DEB7CA1BDB0B0FB6F894DEBF0FBEC2
:100F9000CDBF09942A88398848885F846E847D840F
:100FA0008C849B84AA84B984C884DF80EE80FD8011
:100FB0000C811B81AA81B981CE0FD11D0FB6F89487
:100FC000DEBF0FBECDBFED010895DC01CB01FC01FA
:100FD000E199FECF06C0FFBBEEBBE09A31960DB2A1
:100FE0000D9241505040B8F70895E199FECF9FBB54
:100FF0008EBBE09A99278DB30895262FE199FECFF5
:101000009FBB8EBB2DBB0FB6F894E29AE19A0FBE40
:0810100001960895F894FFCF4A
:0A1018001D600001006A000E0000D8
:00000001FF
