:1000000063C0C8C07CC07BC07AC079C078C077C0EC
:1000100076C075C074C073C072C071C070C06FC04C
:100020006EC06DC06CC024C123C120C11FC119C1E5
:1000300018C117C116C11AC119C11AC119C12DC1E0
:1000400032C138C13DC143C161C126C125C165C1AD
:1000500043C149C14EC155C118C174C171C16DC1FF
:1000600071C16EC16AC16BC16AC167C169C16AC130
:1000700064C166C167C1A8C5B1C4B1C4D0C454C508
:10008000B3C5F5C4F5C4A3C500020406080A0C0EE6
:1000900010121416181A1C1E20222426282A2C2E70
:1000A00030323436383A3C3E00020406080A0C0E60
:1000B00010120116011A1C1E20222426012A2C2EA1
:1000C00001010136383A3C3E11241FBECFE5D4E091
:1000D000DEBFCDBF10E0A0E6B0E0EEEAF0E102C086
:1000E00005900D92AA36B107D9F710E0AAE6B0E064
:1000F00001C01D92A23CB107E1F70CD7D6C780CF53
:10010000FC01808591859B01281B390BC9017187F2
:1001100060872081318142815381A0E0B0E0821765
:100120009307A407B50750F4281B390B4A0B5B0B48
:10013000208331834283538380E0089584819581B5
:10014000A681B78180839183A283B38381E00895E0
:10015000AC01440F551F445050408FB7F8946CB514
:100160007DB58FBF2FB7F8948CB59DB52FBF861B7B
:10017000970B84179507B0F30895CF93DF93EC01A5
:10018000009729F088EE93E0E3DF2197D9F7DF911C
:10019000CF9108951F920F920FB60F9211242F93B3
:1001A0003F938F939F932CB53DB5829916C0809154
:1001B000920090919300281B390B3093910020936B
:1001C00090008CE480937B009F918F913F912F91C1
:1001D0000F900FBE0F901F901895309393002093AF
:1001E0009200F2CF80917B008823E9F0209190006B
:1001F00030919100809190009091910028173907DB
:10020000A9F780917C0090917D002817390758F05C
:1002100080917E0090917F008217930720F03093A9
:100220007A0020937900089510927B0010927A0052
:1002300010927900D7DF8091790090917A00009731
:10024000C9F308959598AC98C098949AAD9AAB9AD2
:10025000089503FD886090E0FC013197EC30F105D2
:1002600010F0C09A0895ED5EFF4F0994959A089595
:10027000AC9A0895902F03FD8860E82FF0E0EE30EF
:10028000F10550F4E15EFF4F0994AD9AAC98959852
:1002900094FDC09A87E087B90895AD9AAB9A949877
:1002A00087E087B90895AB9AC098959894FF2CC0C1
:1002B000AC9A2AC0AD9A949AAB9886E087B9089513
:1002C000AD9AAC98959894FF11C0959A0FC0AB9ACF
:1002D000949AAD9817B80895AB9AC098AC9894FFCB
:1002E00013C0959A11C0949AAD9AAB9887E087B9DC
:1002F0000895949A9598AC9894FDAC9A86E087B945
:100300000895AB9AAD9A949817B80895949A9598D1
:10031000AC9894FFF3CFC09AF1CF949AAB9AAD9872
:1003200086E087B9089503FD8860E82FF0E0EE309D
:10033000F10528F4E35DFF4F099486E087B908953D
:1003400017B8089587E087B90895802F8770815086
:1003500091DF802F87708ECF90E0A0E0B0E02091F9
:10036000880030918900442737FD4095542FBC0107
:10037000CD01D7D524E630E040E050E018D6DA01D0
:10038000C90108959201402F407104FF06C0809179
:10039000880090918900281B390B809184009091EE
:1003A0008500821B930B909385008093840097FDBA
:1003B00007C0442321F00F7E9598AC98C09808950B
:1003C0004423E9F7802F8061082F877042CF802F68
:1003D000877080FF0DC005FD0DC0239482E182155A
:1003E00010F452E1252E80E0222009F481E00895E6
:1003F00005FDF3CF2A94F2CFE22D05FFE160F0E096
:10040000E857FF4FE4912E2E8E2F81700895E22D34
:1004100005FDE160F0E0E857FF4FE4912E2E8E2FAE
:1004200081700895DFDE4091790050917A008091CB
:10043000860090918700481B590B80918A0090910B
:100440008B004817590714F440E050E020918800D1
:10045000309189008091BC009091BD008217930774
:100460002CF405969093BD008093BC0028173907A3
:100470000CF4C901481759070CF4CA012C0108955E
:100480009093BA008093B9009093B2008093B1002A
:100490008091A4009091A5009093AE008093AD0050
:1004A0009C01369527953695279536952795309357
:1004B000B6002093B500C901969587959093A80042
:1004C0008093A700AC015695479556954795809126
:1004D000BB00823059F0833019F0813089F00895E3
:1004E000241B350B3093B6002093B5008091B500E6
:1004F0009091B600841B950B9093B6008093B50045
:100500008091B5009091B600841B950B9093B60036
:100510008093B50008958FEF8093A6000F7B5092D3
:10052000BD004092BC008091B3009091B400A8CF70
:10053000902F9F77092F809175008111006880911D
:1005400076008093BB0080916A0090916B00880FC9
:10055000991F90937D0080937C0080916C00909116
:100560006D00880F991F90937F0080937E00E0912B
:100570006E00F0916F00EE0FFF1FF0938100E0938B
:1005800080008091720090917300880F991F909362
:100590008300809382002091700030917100220FBF
:1005A000331F2E1B3F0BC901880F991F880F991FFE
:1005B000880F991F64E670E0D3D4260F371F30935D
:1005C000890020938800E61BF70BF0938700E093E7
:1005D000860070938B0060938A0088E0BDDE909364
:1005E0008D0080938C0089E1B7DE90938F0080931B
:1005F0008E00902F977F092F8091780081110860DD
:100600000895CF92DF92EF92FF92CF93DF93262F40
:10061000E82FF0E080E197E2BF01B6D46B0130E053
:100620002E9F70012F9FF00C3E9FF00C1124E114BF
:10063000F10489F0C0E0D0E0802F87700ADE86E008
:1006400090E086DD9598AC98C098C60181DD219632
:10065000CE15DF0588F3DF91CF91FF90EF90DF900B
:10066000CF9008951F93087F70DE10E0912F977050
:10067000802F887F082F092B812FFCDD812F8A5F37
:100680006AE0BFDF85E090E078DD1F5F153071F72D
:100690001F910895CF92DF92FF921F93CF93DF9324
:1006A000EC016B01F42E142FBFDD212F1F2D8C17B1
:1006B0009D07D0F3C816D906B8F3122F1150A1F731
:1006C000DF91CF911F91FF90DF90CF900895EF922F
:1006D000FF921F93CF93DF93A7DD7C01EC0110E025
:1006E00003C01F5F1233A9F09FDDC817D90708F4B4
:1006F000EC018E159F0508F47C01CE018E199F092F
:10070000099778F380E090E0CDB7DEB7E5E09AC4D2
:1007100009C0CE018E0D9F1D96958795CDB7DEB78A
:10072000E5E090C4609180007091810080917C0030
:1007300090917D0042E3AECF8091740090E0880FED
:10074000991F209180003091810060917E0070910E
:100750007F00820F931F4FE09DCFA0E0B0E0E2EB5F
:10076000F3E04CC4DFDFF1DD8CE062E34ADF70EAE6
:10077000872E76E8972E71E0A72EB12C6FEF662EAC
:100780006FE7762EC090B300D090B4005BDD10927E
:1007900085001092840044245524802F8F7E082FDA
:1007A00087FF03C0959AAC9AC09AC6DF4BDD409094
:1007B0008C0050908D0088E098EFA1E0B0E080932D
:1007C0009E0090939F00A093A000B093A100CFEF54
:1007D000DFE310E080919E0090919F00A091A00027
:1007E000B091A10080939A0090939B00A0939C00ED
:1007F000B0939D0052E1252E16C00F7DC3DD8FB74B
:10080000F8946CB57DB58FBF8AE990E079DC8823D8
:1008100009F08CC0DCDD882371F4459B08C00F7D96
:10082000D6DD882341F44599E8CF0062E7CF006226
:10083000CEDD8823C1F38FB7F894ECB4FDB48FBF3D
:1008400097012C193D098091BE009091BF00820F45
:10085000931F9093A5008093A4003093BF00209332
:10086000BE008C1B9D0B9595879595958795C80F18
:10087000D91F1F5F183708F442C09BE1C53ED90756
:100880000CF471C0670118E7902F9770892F8F5F64
:10089000863008F086508770902F987E9598AC9897
:1008A000C098092F082BE6DC802F877051F18091CA
:1008B0009E0090919F00A091A000B091A100889708
:1008C000A109B10980939E0090939F00A093A0007E
:1008D000B093A100805A9648A140B04040F4809265
:1008E0009E0090929F00A092A000B092A10041149F
:1008F000510409F44BCF8CE291E02ADC6BCF670105
:10090000C3CF70DC4091790050917A0080918600CD
:1009100090918700481B590B80918A0090918B0021
:10092000481759072CF444245524C1CF10E0ACCF0C
:1009300020918C0030918D00421753074CF080912C
:100940008E0090918F009A01841795070CF49C01FA
:10095000C201241935093595279535952795290123
:10096000480E591EA4CFF092B400E092B300902F2D
:100970009770892F8F5F863008F086508770902F90
:10098000987F092F082B76DCC6DDDD2410E0459B1F
:1009900069C00F7DD0FC69C08FB7F894CCB5DDB5C8
:1009A0008FBFE12FF0E0E930F105A8F0F092B4003C
:1009B000E092B30047DC109285001092840044243A
:1009C00055240F7E8091A600882309F4DBCECDB795
:1009D000DEB7EDE02FC3E55CFF4F099412E0809194
:1009E000AB009091AC009E01281B390BD093AC005A
:1009F000C093AB008091A7009091A80028173907F9
:100A000008F416C18091A9009091AA009093A800C3
:100A10008093A7002224802F877080FF85C080915B
:100A2000B1009091B2009E01281B390BD093B20007
:100A3000C093B1008091AD009091AE0028173907A6
:100A400008F0DCC0821B930B9093AE008093AD0046
:100A5000D3DC882309F0F4C0A70113E0D3947A0112
:100A6000459997CF0062D0FE97CF8CDC95CF17E0E9
:100A70008091B9009091BA009E01281B390BD09348
:100A8000BA00C093B9008091B5009091B6002817C4
:100A9000390708F4C5C08091B7009091B8009093D1
:100AA000B6008093B5008091A4009091A50081517B
:100AB000974208F092C0902F9770892F8F5F8630F1
:100AC00008F086508770902F987F092F082BD2DB73
:100AD00080919800909199009E01281B390BD0932A
:100AE0009900C093980080919400909195002817E8
:100AF000390708F4CFC080919600909197009093A9
:100B000095008093940080917B00815080937B00BE
:100B1000882309F0C5C010927A00109279001092D3
:100B2000910010929000BCC08091B1009091B200F1
:100B30009E01281B390BD093B200C093B100809165
:100B4000AD009091AE002817390708F057C0821BFE
:100B5000930B9093AE008093AD0059DC882309F08D
:100B60006FC0A70114E07ACF6DDB10928500109260
:100B7000840044245524902F9F7E292F2770822F94
:100B80008D5F863008F086508770987F092F082B7C
:100B9000CADBD093B200C093B1007092AE006092F5
:100BA000AD00D093AC00C093AB008091A4009091B5
:100BB000A500969587959695879596958795909398
:100BC000A8008093A7000064A70111E047CF2ADCAA
:100BD00007FF0FC04114510461F4F092B400E09299
:100BE000B3001092A600E6CEC7014ADCA70116E0CA
:100BF00035CFD093AC00C093AB00E6CF8091AF006F
:100C00009091B0009093AE008093AD0006FFACCF02
:100C1000F092B400E092B30081E08093A600CACEC7
:100C2000821B930B9093B6008093B500A70116CF5B
:100C3000821B930B9093A8008093A700A7010ECF6F
:100C4000AE014A52504006FF12C0CA018E199F09D8
:100C5000969587959093A5008093A4009695879587
:100C60009093BF008093BE000F7B15E0F7CE9A01F2
:100C70002E193F098091BE009091BF00820F931FF3
:100C80009093A5008093A4003093BF002093BE00F2
:100C900015E0E4CE821B930B909395008093940013
:100CA000A70118E0DBCE81E0EAD06091630070918B
:100CB00064008091610090916200E7D060916700CC
:100CC000709168008091650090916600DED0DCC074
:100CD00082E0D5D0609163007091640080916100E2
:100CE00090916200E8D060916700709168008091F7
:100CF000650090916600DFD0C7C0809177008111B8
:100D0000089560917E0070917F0080917C009091A9
:100D10007D004AE0BFDC88DA89569B4088F3D7DC47
:100D20000097E9F3969587959093710080937000F2
:100D30008AE06AE066DC88EC90E01FDA8AE06AE02C
:100D400060DC80917C0090917D0068E67BE049E169
:100D5000A1DCBDDC0097E9F3FC01F695E795209155
:100D6000700030917100C9018E1B9F0B880F991F75
:100D7000880F991F64E670E0F3D0261B370B309381
:100D8000710020937000E60FF71FF0936F00E0935F
:100D90006E009EDFCDCBA1E0B0E0E0EDF6E039C122
:100DA000F89419BE1FBC82E08EBD18BA81E387BBE0
:100DB0008AE285BB8AE384BB80E182BB80E381BB9E
:100DC000379880B7886080BF3DDA959AAC9AC09A10
:100DD00085E090E0D2D99598AC98C098929A85B762
:100DE0008C7F816085BF8BB780648BBF1092910030
:100DF00010929000109273001092720084E893E0B9
:100E000090936B0080936A0088E998E090936D005E
:100E100080936C0084E294E090936F0080936E0066
:100E200084E497E0909371008093700085E0809354
:100E300074008FEF9FEF90939700809396008DE161
:100E4000898381E01CD0CE01019661E070E01DD065
:100E50001BD089818D3189F0789410928500109291
:100E60008400442455240F7E63DB8AEF90E085D90B
:100E7000F9DB43DF2196E2E0E8C015DFEDCF109209
:100E8000C1001092C000089508950F931F938B0125
:100E90006091C0007091C100A801E2D08091C000B3
:100EA0009091C100800F911F9093C1008093C0006A
:100EB0001F910F910895A0E0B0E0E0E6F7E0A3C035
:100EC0009C016B018091C0009091C100611571057A
:100ED000B9F08C017901EB0105C00F5F1F4F089439
:100EE000E11CF11CC801CCD0F7016081861711F01C
:100EF000C801CED0219789F78091C0009091C100A0
:100F00008C0D9D1D9093C1008093C000CDB7DEB7BE
:100F1000E8E095C004D03FDF20DC1FDCFDCF7894F3
:100F20000895629FD001739FF001829FE00DF11D33
:100F3000649FE00DF11D929FF00D839FF00D749F53
:100F4000F00D659FF00D9927729FB00DE11DF91FFF
:100F5000639FB00DE11DF91FBD01CF01112408955C
:100F6000AA1BBB1B51E107C0AA1FBB1FA617B707CF
:100F700010F0A61BB70B881F991F5A95A9F78095EB
:100F80009095BC01CD01089597FB092E07260AD044
:100F900077FD04D0E5DF06D000201AF47095619546
:100FA0007F4F0895F6F7909581959F4F0895A1E2A0
:100FB0001A2EAA1BBB1BFD010DC0AA1FBB1FEE1FD3
:100FC000FF1FA217B307E407F50720F0A21BB30B1E
:100FD000E40BF50B661F771F881F991F1A9469F79A
:100FE00060957095809590959B01AC01BD01CF01F6
:100FF00008952F923F924F925F926F927F928F92BD
:101000009F92AF92BF92CF92DF92EF92FF920F9397
:101010001F93CF93DF93CDB7DEB7CA1BDB0B0FB6A1
:10102000F894DEBF0FBECDBF09942A88398848885E
:101030005F846E847D848C849B84AA84B984C884F4
:10104000DF80EE80FD800C811B81AA81B981CE0FEB
:10105000D11D0FB6F894DEBF0FBECDBFED010895D0
:10106000DC01CB01FC01E199FECF06C0FFBBEEBB6A
:10107000E09A31960DB20D9241505040B8F7089564
:10108000E199FECF9FBB8EBBE09A99278DB308955F
:10109000262FE199FECF9FBB8EBB2DBB0FB6F894D8
:0E10A000E29AE19A0FBE01960895F894FFCFF0
:0A10AE001D600001006A000F000041
:00000001FF
