:100000003BC055C09FC053C052C051C050C04FC02C
:100010004EC04DC04CC04BC04AC049C048C047C08C
:1000200046C045C044C05EC567C467C486C40AC52F
:1000300069C5ABC4ABC459C500020406080A0C0E5E
:1000400010121416181A1C1E20222426282A2C2EC0
:1000500030323436383A3C3E00020406080A0C0EB0
:1000600010120116011A1C1E20222426012A2C2EF1
:1000700001010136383A3C3E11241FBECFE5D4E0E1
:10008000DEBFCDBF10E0A0E6B0E0ECE6FEE002C0CF
:1000900005900D92AA36B107D9F710E0AAE6B0E0B4
:1000A00001C01D92A03CB107E1F728D6DDC6A8CF5C
:1000B000FC01808591859B01281B390BC901718743
:1000C00060872081318142815381A0E0B0E08217B6
:1000D0009307A407B50750F4281B390B4A0B5B0B99
:1000E000208331834283538380E008958481958106
:1000F000A681B78180839183A283B38381E0089531
:10010000AC01440F551F445050408FB7F8946CB564
:100110007DB58FBF2FB7F8948CB59DB52FBF861BCB
:10012000970B84179507B0F30895CF93DF93EC01F5
:10013000009729F088EE93E0E3DF2197D9F7DF916C
:10014000CF9108951F920F920FB60F9211242F9303
:100150003F938F939F932CB53DB5839916C08091A3
:10016000900090919100281B390B30938F002093C1
:100170008E008CE4809379009F918F913F912F9115
:100180000F900FBE0F901F90189530939100209301
:100190009000F2CF809179008823E9F020918E00C1
:1001A00030918F0080918E0090918F002817390731
:1001B000A9F780917A0090917B002817390758F0B1
:1001C00080917C0090917D008217930720F03093FE
:1001D00078002093770008951092790010927800AB
:1001E00010927700D7DF8091770090917800009788
:1001F000C9F30895A898A998AA98C39AC29AC19ACF
:100200000895813010F4AA9A0895833010F4A99AC1
:1002100008958530C0F7A89A0895823059F1833047
:1002200060F0843069F1843098F4C29AA998A89853
:1002300003FDA89A84E087B90895882331F4C29A0F
:10024000C19AC39884E087B90895813059F0089520
:100250008530E9F7C39AA898A99803FDAA9A83E084
:1002600087B90895C19AAA98A89803FDA99A85E02C
:1002700087B90895C29AC39AC19883E087B908954F
:10028000C19AC39AC29885E087B90895823081F0F7
:10029000833038F0843079F0843040F484E087B9DA
:1002A00008958823D9F3813031F008958530E9F736
:1002B00083E087B9089585E087B90895802F877016
:1002C0008150ABDF802F8770A8CF90E0A0E0B0E036
:1002D0002091860030918700442737FD4095542FA8
:1002E000BC01CD0112D524E630E040E050E053D50A
:1002F000DA01C90108959201402F487003FF06C03A
:100300008091860090918700281B390B8091820094
:1003100090918300821B930B9093830080938200C3
:1003200097FD07C0442321F0077FA898A998AA98B1
:1003300008954423E9F7802F8860082F877061CFE4
:1003400080FF0DC004FD0DC0239482E1821510F4DE
:1003500052E1252E80E0222009F481E0089504FD79
:10036000F3CF2A94F2CFE22D04FFE160F0E0E85CE5
:10037000FF4FE4912E2E8E2F81700895E22D04FD03
:10038000E160F0E0E85CFF4FE4912E2E8E2F81704B
:10039000089500DF409177005091780080918400AB
:1003A00090918500481B590B80918800909189009D
:1003B0004817590714F440E050E02091860030912E
:1003C00087008091BA009091BB00821793072CF4AC
:1003D00005969093BB008093BA00281739070CF458
:1003E000C901481759070CF4CA012C0108959093CC
:1003F000B8008093B7009093B0008093AF008091D5
:10040000A2009091A3009093AC008093AB009C015C
:100410003695279536952795369527953093B400D0
:100420002093B300C901969587959093A600809379
:10043000A500AC0156954795569547958091B90012
:10044000823059F0833019F0813089F00895241BEF
:10045000350B3093B4002093B3008091B30090919A
:10046000B400841B950B9093B4008093B3008091EB
:10047000B3009091B400841B950B9093B4008093CB
:10048000B30008958FEF8093A4000F7D5092BB00BE
:100490004092BA008091B1009091B200A8CF902F05
:1004A0009F7B092F809175008111006480917600F7
:1004B0008093B90080916A0090916B00880F991F1A
:1004C00090937B0080937A0080916C0090916D00F6
:1004D000880F991F90937D0080937C00E0916E00BF
:1004E000F0916F00EE0FFF1FF0937F00E0937E000E
:1004F0008091720090917300880F991F90938100F2
:10050000809380002091700030917100220F331F82
:100510002E1B3F0BC901880F991F880F991F880F49
:10052000991F64E670E010D4260F371F30938700C0
:1005300020938600E61BF70BF0938500E093840080
:1005400088E0C3DE909389008093880088E0BDDE58
:1005500090938B0080938A0089E1B7DE90938D00A1
:1005600080938C000895CF92DF92EF92FF92CF9309
:10057000DF93262FE82FF0E080E197E2BF01F8D368
:100580006B0130E02E9F70012F9FF00C3E9FF00C0E
:100590001124E114F10489F0C0E0D0E0802F8770CD
:1005A00030DE86E090E0ACDDA898A998AA98C60154
:1005B000A7DD2196CE15DF0588F3DF91CF91FF905F
:1005C000EF90DF90CF9008951F93087F77DE10E0C3
:1005D000912F9770802F887F082F092B812F1DDE88
:1005E000812F8A5F6AE0BFDF85E090E09EDD1F5FBC
:1005F000153071F71F910895CF92DF92FF921F93EC
:10060000CF93DF93EC016B01F42E142FE5DD212F46
:100610001F2D8C179D07D0F3C816D906B8F3122FDB
:100620001150A1F7DF91CF911F91FF90DF90CF90F4
:10063000089560917E0070917F0080917A00909182
:100640007B0042E3D9CF8091740090E0880F991F1E
:1006500020917E0030917F0060917C0070917D0040
:10066000820F931F4FE0C8CFA0E0B0E0E9E3F3E0D2
:10067000B9C3AADFDEDF8CE062E375DF20EA822EF9
:1006800026E8922E21E0A22EB12C9FEF692E9FE743
:10069000792EC090B100D090B200ACDD10928300F2
:1006A0001092820044245524802F877F082F86FFD4
:1006B00003C0A89AA99AAA9AC6DF9CDD40908A0036
:1006C00050908B0088E098EFA1E0B0E080939C0010
:1006D00090939D00A0939E00B0939F00CFEFDFE327
:1006E00010E080919C0090919D00A0919E00B0919F
:1006F0009F008093980090939900A0939A00B093E4
:100700009B0082E1282E1AC00F7EF5DD8FB7F8948A
:100710006CB57DB58FBF88E990E0CADC882309F00D
:100720008FC0802F87700CDE882391F4459B0AC010
:100730000F7E802F877004DE882351F44599E4CF23
:100740000061E3CF0061802F8770FADD8823B1F369
:100750008FB7F894ECB4FDB48FBFC7018C199D0915
:100760002091BC003091BD00280F391F9093BD002F
:100770008093BC00C9018C1B9D0B95958795959521
:100780008795C80FD91F1F5F183708F442C09BE137
:10079000C53ED90708F471C0670118E7902F97701C
:1007A000892F8F5F863008F086508770902F907F5A
:1007B000A898A998AA98092F082B2FDD802F877059
:1007C00051F180919C0090919D00A0919E00B0916C
:1007D0009F008897A109B10980939C0090939D0088
:1007E000A0939E00B0939F00805A9648A140B040CD
:1007F00040F480929C0090929D00A0929E00B09246
:100800009F004114510409F448CF8CE291E078DC58
:1008100068CF6701C3CFBEDC40917700509178006C
:100820008091840090918500481B590B809188002D
:1008300090918900481759072CF444245524C1CFBE
:1008400010E0ACCF20918A0030918B004217530703
:100850004CF080918C0090918D009A01841795073F
:100860000CF49C01C201241935093595279535955D
:1008700027952901480E591EA4CF3093A300209339
:10088000A200F092B200E092B100902F9770892FF1
:100890008F5F863008F086508770902F987F092FE1
:1008A000082BBBDCEFDDDD2410E0459B69C00F7E2B
:1008B000D0FC69C08FB7F894CCB5DDB58FBFE12F00
:1008C000F0E0E930F105A8F0F092B200E092B1005A
:1008D00091DC109283001092820044245524077FFB
:1008E0008091A400882309F4D4CECDB7DEB7EDE023
:1008F00095C2ED5EFF4F099412E08091A90090919E
:10090000AA009E01281B390BD093AA00C093A9000E
:100910008091A5009091A6002817390708F416C108
:100920008091A7009091A8009093A6008093A500C5
:100930002224802F877080FF85C08091AF00909126
:10094000B0009E01281B390BD093B000C093AF00BC
:100950008091AB009091AC002817390708F0DCC0FB
:10096000821B930B9093AC008093AB00FCDC88233C
:1009700009F0F4C0A70113E0D3947A01459997CF09
:100980000061D0FE97CFB7DC95CF17E08091B7001C
:100990009091B8009E01281B390BD093B800C093EA
:1009A000B7008091B3009091B4002817390708F47C
:1009B000C5C08091B5009091B6009093B40080932B
:1009C000B3008091A2009091A3008151974208F05A
:1009D00092C0902F9770892F8F5F863008F08650D5
:1009E0008770902F987F092F082B17DC8091960035
:1009F000909197009E01281B390BD0939700C093CC
:100A0000960080919200909193002817390708F47E
:100A1000CFC0809194009091950090939300809323
:100A2000920080917900815080937900882309F0A9
:100A3000C5C0109278001092770010928F0010922B
:100A40008E00BCC08091AF009091B0009E01281B29
:100A5000390BD093B000C093AF008091AB00909160
:100A6000AC002817390708F057C0821B930B9093EE
:100A7000AC008093AB0082DC882309F06FC0A70133
:100A800014E07ACFB7DB10928300109282004424E6
:100A90005524902F977F292F2770822F8D5F8630C6
:100AA00008F086508770987F092F082BEFDBD093D2
:100AB000B000C093AF007092AC006092AB00D093D6
:100AC000AA00C093A9008091A2009091A3009695DE
:100AD000879596958795969587959093A600809390
:100AE000A5000062A70111E047CF53DC06FF0FC04D
:100AF0004114510461F4F092B200E092B1001092FE
:100B0000A400E6CEC70173DCA70116E035CFD09371
:100B1000AA00C093A900E6CF8091AD009091AE00ED
:100B20009093AC008093AB0005FFACCFF092B20085
:100B3000E092B10081E08093A400CACE821B930BA7
:100B40009093B4008093B300A70116CF821B930B40
:100B50009093A6008093A500A7010ECFAE014A5244
:100B6000504005FF12C0CA018E199F0996958795BE
:100B70009093A3008093A200969587959093BD00D3
:100B80008093BC000F7D15E0F7CE9A012E193F0926
:100B90008091BC009091BD00820F931F9093A300A1
:100BA0008093A2003093BD002093BC0015E0E4CEFA
:100BB000821B930B9093930080939200A70118E0FF
:100BC000DBCE81E07FD06091630070916400809102
:100BD0006100909162007CD0609167007091680024
:100BE000809165009091660073D071C0A1E0B0E083
:100BF000EBEFF5E002C1F89419BE1FBC82E08EBD98
:100C00008EE088BB87BB15BA87E084BB84E182BBDA
:100C100081BB379880B7886080BF429AEBDAA89A88
:100C2000A99AAA9A85E090E080DAA898A998AA984B
:100C3000939A85B7837F846085BF8BB780688BBFAD
:100C400010928F0010928E0088EE93E090937300C4
:100C50008093720084E893E090936B0080936A0025
:100C600088E998E090936D0080936C0084E294E0B2
:100C700090936F0080936E0084E497E090937100EE
:100C80008093700085E0809374008FEF9FEF9093C6
:100C90009500809394008AE1898381E013D0CE018E
:100CA000019661E070E014D012D089818A3141F060
:100CB0007894F5DB8AEF90E038DA2196E2E0B9C06B
:100CC00080DFF6CF1092BF001092BE000895089505
:100CD0000F931F938B016091BE007091BF00A8011C
:100CE000B3D08091BE009091BF00800F911F909370
:100CF000BF008093BE001F910F91089504D076DF4E
:100D0000B3DCB2DCFDCF78940895629FD001739F6D
:100D1000F001829FE00DF11D649FE00DF11D929F97
:100D2000F00D839FF00D749FF00D659FF00D9927D6
:100D3000729FB00DE11DF91F639FB00DE11DF91FFA
:100D4000BD01CF0111240895AA1BBB1B51E107C0AF
:100D5000AA1FBB1FA617B70710F0A61BB70B881F4B
:100D6000991F5A95A9F780959095BC01CD010895DA
:100D700097FB092E07260AD077FD04D0E5DF06D0C1
:100D800000201AF4709561957F4F0895F6F79095BD
:100D900081959F4F0895A1E21A2EAA1BBB1BFD014E
:100DA0000DC0AA1FBB1FEE1FFF1FA217B307E4074A
:100DB000F50720F0A21BB30BE40BF50B661F771FA2
:100DC000881F991F1A9469F7609570958095909582
:100DD0009B01AC01BD01CF0108952F923F924F922C
:100DE0005F926F927F928F929F92AF92BF92CF92BB
:100DF000DF92EF92FF920F931F93CF93DF93CDB7C4
:100E0000DEB7CA1BDB0B0FB6F894DEBF0FBECDBF3B
:100E100009942A88398848885F846E847D848C840C
:100E20009B84AA84B984C884DF80EE80FD800C8115
:100E30001B81AA81B981CE0FD11D0FB6F894DEBFF8
:100E40000FBECDBFED010895DC01CB01FC01E1999E
:100E5000FECF06C0FFBBEEBBE09A31960DB20D92FD
:0C0E600041505040B8F70895F894FFCFBF
:0A0E6C001A600001006A000D00008A
:00000001FF
