:100000003BC0A0C054C053C052C051C050C04FC02C
:100010004EC04DC04CC04BC04AC049C048C047C08C
:1000200046C045C044C073C57CC47CC49BC41FC5C6
:100030007EC5C0C4C0C46EC500020406080A0C0E0A
:1000400010121416181A1C1E20222426282A2C2EC0
:1000500030323436383A3C3E00020406080A0C0EB0
:1000600010120116011A1C1E20222426012A2C2EF1
:1000700001010136383A3C3E11241FBECFE5D4E0E1
:10008000DEBFCDBF10E0A0E6B0E0E0E9FEE002C0D8
:1000900005900D92AA36B107D9F710E0AAE6B0E0B4
:1000A00001C01D92AE3BB107E1F73AD6EFC6A8CF2B
:1000B000FC01808591859B01281B390BC901718743
:1000C00060872081318142815381A0E0B0E08217B6
:1000D0009307A407B50750F4281B390B4A0B5B0B99
:1000E000208331834283538380E008958481958106
:1000F000A681B78180839183A283B38381E0089531
:10010000AC01440F551F445050408FB7F8946CB564
:100110007DB58FBF2FB7F8948CB59DB52FBF861BCB
:10012000970B84179507B0F30895CF93DF93EC01F5
:10013000009729F088EE93E0E3DF2197D9F7DF916C
:10014000CF9108951F920F920FB60F9211242F9303
:100150003F938F939F932CB53DB5829916C08091A4
:100160008F0090919000281B390B30938E002093C4
:100170008D008CE4809378009F918F913F912F9117
:100180000F900FBE0F901F90189530939000209302
:100190008F00F2CF809178008823E9F020918D00C4
:1001A00030918E0080918D0090918E002817390734
:1001B000A9F78091790090917A002817390758F0B3
:1001C00080917B0090917C008217930720F0309300
:1001D00077002093760008951092780010927700AF
:1001E00010927600D7DF809176009091770000978B
:1001F000C9F30895C29AC19AC09A95989498939811
:100200000895813010F4C0980895833010F4C19897
:1002100008958530C0F7C2980895823009F441C02E
:10022000833080F08430A9F18430D8F49498C19A56
:10023000C29A03FDC29884E087B9379880B7886076
:1002400080BF0895882351F494989398959A84E0F8
:1002500087B9379880B7886080BF0895813079F07A
:1002600008958530E9F79598C29AC19A03FDC09820
:1002700085E087B9379880B7886080BF08959398E4
:10028000C09AC29A03FDC19880B7877F80BF379A12
:10029000089593989598949A80B7877F80BF379AEE
:1002A000089594989598939A85E087B9379880B780
:1002B000886080BF08958230A1F0833058F0843088
:1002C000B9F0843060F484E087B9379880B78860EB
:1002D00080BF08958823B9F3813051F008958530A7
:1002E000E9F785E087B9379880B7886080BF0895BF
:1002F00080B7877F80BF379A0895802F877081509D
:100300008CDF802F877089CF90E0A0E0B0E0209153
:10031000850030918600442737FD4095542FBC015D
:10032000CD0105D524E630E040E050E046D5DA01C5
:10033000C90108959201402F487003FF06C08091C3
:10034000850090918600281B390B80918100909147
:100350008200821B930B909382008093810097FD13
:1003600007C0442321F0077FC29AC19AC09A08951A
:100370004423E9F7802F8860082F877042CF80FFE1
:100380000DC004FD0DC0239482E1821510F452E1EA
:10039000252E80E0222009F481E0089504FDF3CFAA
:1003A0002A94F2CFE22D04FFE160F0E0E85CFF4F19
:1003B000E4912E2E8E2F81700895E22D04FDE160D0
:1003C000F0E0E85CFF4FE4912E2E8E2F81700895AF
:1003D000E1DE40917600509177008091830090910A
:1003E0008400481B590B8091870090918800481722
:1003F000590714F440E050E02091850030918600C8
:100400008091B8009091B900821793072CF405965B
:100410009093B9008093B800281739070CF4C901EC
:10042000481759070CF4CA012C0108959093B7009E
:100430008093B6009093AF008093AE008091A100AE
:100440009091A2009093AB008093AA009695879517
:1004500096958795969587959093B3008093B20073
:10046000969587959093A5008093A40008958FEFAB
:100470008093A3000F7D5092B9004092B800809104
:10048000B0009091B100D2CF902F9F7B092F809127
:1004900075008111006480916A0090916B00880F53
:1004A000991F90937A008093790080916C009091CD
:1004B0006D00880F991F90937C0080937B00E091E2
:1004C0006E00F0916F00EE0FFF1FF0937E00E0933F
:1004D0007D008091720090917300880F991F909316
:1004E000800080937F002091700030917100220F76
:1004F000331F2E1B3F0BC901880F991F880F991FAF
:10050000880F991F64E670E031D4260F371F3093AF
:10051000860020938500E61BF70BF0938400E093A0
:10052000830088E0F1DE909388008093870088E064
:10053000EBDE90938A008093890089E1E5DE909359
:100540008C0080938B000895CF92DF92EF92FF9200
:10055000CF93DF93262FE82FF0E080E197E2BF01F1
:1005600019D46B0130E02E9F70012F9FF00C3E9F3D
:10057000F00C1124E114F10489F0C0E0D0E0802FE8
:1005800087703FDE86E090E0BBDDC29AC19AC09AD8
:10059000C601B6DD2196CE15DF0588F3DF91CF9138
:1005A000FF90EF90DF90CF9008951F93087FA5DE16
:1005B00010E0912F9770802F887F082F092B812FB3
:1005C0002CDE812F8A5F6AE0BFDF85E090E0ADDD41
:1005D0001F5F153071F71F910895CF92DF92FF9240
:1005E0001F93CF93DF93EC016B01F42E142FF4DDF6
:1005F000212F1F2D8C179D07D0F3C816D906B8F3ED
:10060000122F1150A1F7DF91CF911F91FF90DF9032
:10061000CF90089560917D0070917E008091790067
:1006200090917A0042E3D9CF8091740090E0880FD6
:10063000991F20917D0030917E0060917B00709128
:100640007C00820F931F4FE0C8CF05C081B7815057
:10065000B9F081BFC1DDC0DD20917F003091800005
:100660002817390798F3B8DD20917F00309180007A
:100670008217930768F481B78F5F51F081BFACDDBB
:10068000ABDD20917F00309180008217930798F3B3
:100690000895A0E0B0E0EEE4F3E0B6C386DFBADF91
:1006A000D4DF8CE062E350DF20EA822E26E8922E2F
:1006B00021E0A22EB12C9FEF692E9FE7792EC090EA
:1006C000B000D090B10096DD1092820010928100AF
:1006D00044245524802F877F082F86FF03C0C298AB
:1006E000C198C098A1DF86DD4090890050908A00B3
:1006F00088E098EFA1E0B0E080939B0090939C008D
:10070000A0939D00B0939E00CFEFDFE310E08091B7
:100710009B0090919C00A0919D00B0919E008093C1
:10072000970090939800A0939900B0939A0082E16B
:10073000282E1AC00F7EFEDD8FB7F8946CB57DB5FC
:100740008FBF87E990E0B4DC882309F092C0802F46
:10075000877015DE882391F4459B0AC00F7E802F99
:1007600087700DDE882351F44599E4CF0061E3CF13
:100770000061802F877003DE8823B1F38FB7F89470
:10078000ECB4FDB48FBF97012C193D098091BA00DC
:100790009091BB00820F931F9093A2008093A100C1
:1007A0003093BB002093BA008C1B9D0B95958795C9
:1007B00095958795C80FD91F1F5F183708F442C059
:1007C0009BE1C53ED90708F471C0670118E7902F77
:1007D0009770892F8F5F863008F086508770902F32
:1007E000907FC29AC19AC09A092F082B16DD802FDC
:1007F000877051F180919B0090919C00A0919D0089
:10080000B0919E008897A109B10980939B009093B5
:100810009C00A0939D00B0939E00805A9648A140F2
:10082000B04040F480929B0090929C00A0929D006A
:10083000B0929E004114510409F445CF8CE291E03E
:100840005FDC65CF6701C3CFA5DC40917600509196
:1008500077008091830090918400481B590B809110
:10086000870090918800481759072CF44424552498
:10087000C1CF10E0ACCF2091890030918A0042179F
:1008800053074CF080918B0090918C009A01841753
:1008900095070CF49C01C20124193509359527955B
:1008A000359527952901480E591EA4CFF092B10025
:1008B000E092B000902F9770892F8F5F863008F0FC
:1008C00086508770902F987F092F082BA6DCCFDDEC
:1008D000DD2410E0459B69C00F7ED0FC69C08FB756
:1008E000F894CCB5DDB58FBFE12FF0E0E930F1052C
:1008F000A8F0F092B100E092B0007CDC109282008F
:100900001092810044245524077F8091A3008823FE
:1009100009F4D5CECDB7DEB7EDE092C2ED5EFF4F64
:10092000099412E08091A8009091A9009E01281BD3
:10093000390BD093A900C093A8008091A400909196
:10094000A5002817390708F416C18091A6009091D8
:10095000A7009093A5008093A4002224802F877085
:1009600080FF85C08091AE009091AF009E01281B52
:10097000390BD093AF00C093AE008091AA00909144
:10098000AB002817390708F0DCC0821B930B90934B
:10099000AB008093AA0006DD882309F0F4C0A7010C
:1009A00013E0D3947A01459997CF0061D0FE97CF99
:1009B000C1DC95CF17E08091B6009091B7009E0101
:1009C000281B390BD093B700C093B6008091B200BA
:1009D0009091B3002817390708F4C5C08091B4007E
:1009E0009091B5009093B3008093B2008091A100E4
:1009F0009091A2008151974208F092C0902F977079
:100A0000892F8F5F863008F086508770902F987FEF
:100A1000092F082B02DC80919500909196009E0191
:100A2000281B390BD0939600C093950080919100BC
:100A3000909192002817390708F4CFC08091930055
:100A4000909194009093920080939100809178000F
:100A5000815080937800882309F0C5C010927700F8
:100A60001092760010928E0010928D00BCC0809182
:100A7000AE009091AF009E01281B390BD093AF00C0
:100A8000C093AE008091AA009091AB00281739075F
:100A900008F057C0821B930B9093AB008093AA0081
:100AA0008CDC882309F06FC0A70114E07ACFA2DBA9
:100AB000109282001092810044245524902F977F39
:100AC000292F2770822F8D5F863008F0865087701F
:100AD000987F092F082BEFDBD093AF00C093AE00B7
:100AE0007092AB006092AA00D093A900C093A800B6
:100AF0008091A1009091A2009695879596958795F3
:100B0000969587959093A5008093A4000062A70115
:100B100011E047CF5DDC06FF0FC04114510461F4C2
:100B2000F092B100E092B0001092A300E6CEC701AF
:100B30007DDCA70116E035CFD093A900C093A800B3
:100B4000E6CF8091AC009091AD009093AB00809384
:100B5000AA0005FFACCFF092B100E092B00081E0B6
:100B60008093A300CACE821B930B9093B300809313
:100B7000B200A70116CF821B930B9093A500809320
:100B8000A400A7010ECFAE014A52504005FF12C08B
:100B9000CA018E199F09969587959093A20080931C
:100BA000A100969587959093BB008093BA000F7D26
:100BB00015E0F7CE9A012E193F098091BA00909165
:100BC000BB00820F931F9093A2008093A1003093EB
:100BD000BB002093BA0015E0E4CE821B930B9093E8
:100BE000920080939100A70118E0DBCE81E07CD0D9
:100BF0006091630070916400809161009091620047
:100C000079D0609167007091680080916500909143
:100C1000660070D06EC0A1E0B0E0E0E1F6E0FFC099
:100C2000F8948FEF81BF19BE1FBC82E08EBD87E0B4
:100C300088BB87E387BB15BA14BA12BA88E381BBB5
:100C4000D9DAC298C198C09885E090E06EDAC29A6D
:100C5000C19AC09A929A85B78C7F816085BF8BB705
:100C600080648BBF10928E0010928D0088EE93E00E
:100C7000909373008093720084E893E090936B00EC
:100C800080936A0088E998E090936D0080936C00EF
:100C900084E294E090936F0080936E0084E497E088
:100CA000909371008093700085E0809374008FEFC3
:100CB0009FEF909394008093930089E1898381E072
:100CC00013D0CE01019661E070E014D012D089817A
:100CD000893141F07894D8DB8AEF90E026DA2196CA
:100CE000E2E0B9C083DFF6CF1092BD001092BC00E5
:100CF000089508950F931F938B016091BC0070912C
:100D0000BD00A801B3D08091BC009091BD00800FC0
:100D1000911F9093BD008093BC001F910F91089587
:100D200004D079DFB6DCB5DCFDCF78940895629FFE
:100D3000D001739FF001829FE00DF11D649FE00DD3
:100D4000F11D929FF00D839FF00D749FF00D659F34
:100D5000F00D9927729FB00DE11DF91F639FB00D33
:100D6000E11DF91FBD01CF0111240895AA1BBB1B72
:100D700051E107C0AA1FBB1FA617B70710F0A61B9B
:100D8000B70B881F991F5A95A9F780959095BC01BC
:100D9000CD01089597FB092E07260AD077FD04D0D0
:100DA000E5DF06D000201AF4709561957F4F089515
:100DB000F6F7909581959F4F0895A1E21A2EAA1BF0
:100DC000BB1BFD010DC0AA1FBB1FEE1FFF1FA217FB
:100DD000B307E407F50720F0A21BB30BE40BF50BF8
:100DE000661F771F881F991F1A9469F76095709581
:100DF000809590959B01AC01BD01CF0108952F9284
:100E00003F924F925F926F927F928F929F92AF929A
:100E1000BF92CF92DF92EF92FF920F931F93CF93E7
:100E2000DF93CDB7DEB7CA1BDB0B0FB6F894DEBF7E
:100E30000FBECDBF09942A88398848885F846E84A4
:100E40007D848C849B84AA84B984C884DF80EE80EE
:100E5000FD800C811B81AA81B981CE0FD11D0FB6F7
:100E6000F894DEBF0FBECDBFED010895DC01CB01CC
:100E7000FC01E199FECF06C0FFBBEEBBE09A3196C4
:100E80000DB20D9241505040B8F70895F894FFCF3D
:0A0E900019600001006A000C000068
:00000001FF
